:10000000004000204D1F00003B6A0100391F000026
:10001000391F0000391F0000391F000000000000D8
:10002000000000000000000000000000112000009F
:10003000391F000000000000B11F0000391F000040
:10004000D121000001000100D1210000D1210000D8
:10005000D1210000D1210000D1210000D1210000D8
:10006000D1210000D1210000D1210000D1210000C8
:10007000D1210000D1210000D1210000D1210000B8
:10008000D1210000D1210000D1210000D1210000A8
:10009000D1210000D1210000D1210000D121000098
:1000A000D1210000D1210000D1210000D121000088
:1000B000D1210000D1210000D1210000D121000078
:1000C000D1210000D1210000D1210000D121000068
:1000D000D1210000D1210000D1210000D121000058
:1000E000D1210000D1210000D1210000D121000048
:1000F000D1210000D1210000D1210000D121000038
:1001000053B94AB9002908BF00281CBF4FF0FF317E
:100110004FF0FF3000F00CB8ADF1080C6DE904CEE3
:1001200000F022F8DDF804E0DDE9022304B07047B6
:10013000704700BF10F8012B11F8013B012A28BFBE
:100140009A42F7D0D01A7047034611F8012B03F8F2
:10015000012B002AF9D17047034613F8012B002A1E
:10016000FBD1181A013870472DE9F04786468C46B6
:100170000846089E154674461946002B40F0C2807A
:100180008542B2FA82F245D94AB1C2F1200300FA9F
:1001900002FC2EFA03F3954043EA0C0C94404FEA1C
:1001A000154EA8B2BCFBFEF8230C0EFB18CC08FBC6
:1001B00000F943EA0C43994528D9EB1808F1FF37B9
:1001C00004D2994502D9A8F102072B44A3EB0903F5
:1001D000A4B2B3FBFEFC0EFB1C330CFB00F044EAA4
:1001E0000344A04214D92C190CF1FF3304D2A042CD
:1001F00002D9ACF102032C44241A43EA07401EB191
:10020000D440002334607360BDE8F0874746DDE7E3
:100210006346F1E792BB431B01214FEA154EAFB293
:10022000B3FBFEFC200C0EFB1C330CFB07F840EA72
:100230000343984562D9EB180CF1FF3004D298457E
:1002400002D9ACF102002B44A3EB0803A4B2B3FB28
:10025000FEFC0EFB1C330CFB07F744EA0344A742E9
:100260004ED92C190CF1FF3304D2A74202D9ACF1BC
:1002700002032C44E41B43EA0040C0E7C2F1200320
:1002800020FA03F1954090402EFA03F303434FEA1E
:10029000154EAFB2B1FBFEFC0EFB1C10190C0CFB93
:1002A00007F841EA0041884504FA02F422D96918A6
:1002B0000CF1FF3004D2884502D9ACF10200294488
:1002C000A1EB08019BB2B1FBFEFC0EFB1C110CFB69
:1002D00007F743EA01439F420ED9EB180CF1FF31B7
:1002E00004D29F4202D9ACF102012B44DB1B41EA4C
:1002F000004192E76046E3E76146F7E76046A3E71F
:100300006346B7E7834206D916B9002108467BE762
:10031000C6E900E0F9E7B3FA83F78FB9834201D366
:10032000724508D8BEEB020460EB030301209C4633
:100330001EB9002168E73846FAE7C6E9004CF8E73D
:10034000C7F1200CBB4022FA0CF41C432EFA0CF12E
:1003500020FA0CF3B84001434FEA14490EFA07F5AE
:10036000B3FBF9F81FFA84FE09FB18300B0C08FBED
:100370000EFA43EA00439A4502FA07F240D9E3181D
:1003800008F1FF3004D29A4502D9A8F102002344B3
:10039000A3EB0A0389B2B3FBF9F809FB183308FB96
:1003A0000EFE41EA03418E452CD9611808F1FF3356
:1003B00004D28E4502D9A8F10203214443EA004049
:1003C000A0FB0298A1EB0E014145CE46434602D365
:1003D00006D14D4504D2B9EB020E68EB0403013897
:1003E000002EA6D0B5EB0E0261EB030101FA0CFC66
:1003F00022FA07F34CEA0303F940C6E9003198E713
:100400004046C5E74346D9E72DE9F843D0E9073828
:10041000856903EB08042F34A5420F46164619D808
:10042000DFF86C80A3FB080117A3D3E90023FFF7D3
:1004300067FE0346601BA0FB080123F07F4412A364
:10044000D3E90023FFF75CFE20F07F403C60306082
:10045000BDE8F883DFF838900BA3D3E90023A5FBB0
:100460000901FFF74DFE20F07F440A480A2106A348
:10047000D3E90023E8FB0901FFF742FE20F07F40AB
:100480003C603060BDE8F8838D49FD1A070000002C
:1004900000CA9A3B00166BF1002800F037812DE965
:1004A000F04FC54C94F86A30DA078DB000F16881DE
:1004B00094F8292094F8353004EB820204EB83038E
:1004C000D66A9F6B0EB3354615F8020BC0F3801049
:1004D00007F028FC0368C6F802308388AB803378C5
:1004E0005B0606D50621284605F08CFF002800F0A3
:1004F00049813D4615F8020BC0F3801007F012FC4D
:100500000368C7F802308388AB80337813F00E0F8E
:1005100040F08E80236A1BB10C200DB0BDE8F08F37
:1005200008F07CFA8146002800F0398108F082FA50
:100530008246002800F030810AF07AFE0546002845
:1005400000F02F81806F4FF6FF732B8605F11C0B97
:10055000002800F01D8105F16C0205F1680105F02D
:100560005DFFB5F8643023F4EF6323F0070343F431
:100570008C7343F00103A5F8643095F8433003F021
:100580003F0363F07F0385F8433095F87E3023F016
:10059000070385F87E3095F8483023F00F034FF0BD
:1005A000000885F848304FF4C023C5F87831284654
:1005B000C5E91588C5F87880A5F87C8085F8458060
:1005C000A5F83680C5F83A80C5F85C80A5F87E812C
:1005D000A5F874810CF080FC85F84081C5F8449141
:1005E0000BF08CF895F8843160F3020385F88431C0
:1005F0000BF08AF895F8843160F3C50385F88431EF
:1006000095F8703168F3410385F8703105F1C40045
:100610000CF054FAC4E9189AC4F820B0C5E905886A
:1006200085F80080ED6110F01BFB002840F0AC80E5
:1006300094F824300121C3F342030DF12B008DF80F
:100640002B3006F087F80246002861D079783046D2
:100650000AF00AF931235949A360594BB4F868707C
:10066000A0FB01010025C01841F1070150A3D3E907
:100670000023C4E9055525706560E560FFF740FD7E
:10068000206107F013FB00F109083FB9357805F048
:100690000F05A5F10105B5FA85F56D0994F824005B
:1006A000236965F3000010F0010584F8240036D0BA
:1006B000444A0992002010600225434A434F0493A4
:1006C0000BAE019305920321CDE902000694434647
:1006D0000090089607972A460B9507F0E9F93146EE
:1006E00008F030FAA0B93A4905914AF2D83300939C
:1006F000CDE90300CDE9010007970896069443462B
:10070000012203210B9507F0B7F92EE009F0FEBF97
:10071000236A002B3FF400AF09F0B4FFFCE6294A3E
:100720002C48049303F24713069402959121136019
:10073000A7FB000301FB0731244B0793224B0593D2
:100740004FF6FF730992022703930BAE18A3D3E968
:1007500000230B970896FFF7D3FC4346CDE90050E2
:100760003A462846032107F0A3F9314608F0EAF992
:100770000028CDD194F86A3043F0010384F86A3040
:100780000020CAE61220C8E609F07CFF0320C4E678
:1007900005F17000A867DEE6484608F045F9072035
:1007A000BBE6504608F04CF9484608F03DF9F6E73C
:1007B0008D49FD1A07000000F81C002000CA9A3B72
:1007C0008C49FD1AEC1C0020E5A800000D7E0000FD
:1007D000E9A30000002AE78470B590F824308AB0BD
:1007E000C3F342030D46044601210DF123001646D2
:1007F0008DF8233005F0AEFF7178024628460AF0E6
:1008000033F81F491F4AA0FB0131981841F1070135
:1008100019A3D3E90023FFF773FC23699842054627
:1008200022D21B1A00220192174A02930221174B6F
:100830000991A21ACA40A3FB0232D20800230A443B
:1008400009AE13490591CDE903330321D2B20696CF
:100850000093184607F08CF9314608F073F938B95F
:10086000256100200AB070BDFBD9C21A0023DAE767
:100870000C200AB070BD00BF8D49FD1A07000000B2
:1008800000CA9A3B8C49FD1AF81C0020F712DA4B7B
:100890000D7E0000000000002DE9F04F06468DB0EF
:1008A0008A46012002219946154612F019F80022C5
:1008B0000B900221012005F001FE3B494FF4C47268
:1008C000304605F08BFDC71C384B0093FFB20196F4
:1008D0004B463A460121002007F0A4F910F0FD0F25
:1008E0000ED0334A3349344840F68F0315F0FDFEED
:1008F000002383F31188BFF36F8F0323184602DFB1
:100900002E4CA5FB044526A3D3E900232046294607
:10091000FFF7F6FB0896069633690493284B20F000
:100920007F48A8FB0331E01A264B07934FF00702DC
:10093000254B059302FB08114FF6FE7365EB010191
:1009400003934FF47A720023FFF7DAFB4FF0000BAA
:10095000CDE90180CDF800A04B463A46012158462A
:1009600007F08AF810F0FD0F0DD0114A1149124816
:1009700040F6A40315F0B9FE8BF31188BFF36F8F17
:100980000323184602DF0B9B13B90DB0BDE8F08FAF
:100990000122022110460DB0BDE8F04F05F08EBDDA
:1009A0008D49FD1A07000000A00D0020D1B1000004
:1009B00084A4010048A50100689F010000CA9A3B79
:1009C0008D49FD1A71B10000E9FC00000000000033
:1009D0002DE9F0418468228E4FF6FF739A428CB065
:1009E00045D0054620460CF0EBFC2B7D012B00F09A
:1009F0003B81022B00F02E81002B00F00D8194F83A
:100A00004061002E40F029812B8A678F94F94320A2
:100A1000CDE90A6673B3002AC0F273810023A4F8FB
:100A20007A31AA7C238FFD1802F003030135012BD4
:100A3000ADB23BD0B4F87E31002B00F01E819D4258
:100A400080F072815B1B9BB20022062BA4F87E31E2
:100A5000628740F20F8194F943309342C0F269817A
:100A6000002326E09DF8271020460AF02BFF0CB04B
:100A7000BDE8F081002AB8BF84F86561238FAA7CA5
:100A8000FD1802F003030135012BADB20ED0B4F80E
:100A90007A31002BCED0AB4240F255815B1BA4F8DB
:100AA0007A31B4F87E31002BC9D102E00023A4F8DA
:100AB0007E3194F8482063F3820284F84820294666
:100AC0000DF1270220460CF043FA7430CAD0B4F876
:100AD00078312BB1AB4240F205815B1BA4F8783131
:100AE000B4F874312BB1AB4240F2F3805B1BA4F835
:100AF0007431658F16B9AF4200F0E2800135ADB2B6
:100B000094F8C13013F0010731D1DDE90A130A4628
:100B1000002B40F0E580002900F0D4801F461846E5
:100B2000228EE4690694CDE903560332A64D029065
:100B3000CDE90017D2B201210020059507F018F881
:100B400010F0FD0F93D008F027F884428FD09F4A11
:100B50009F49A0484FF4AE6315F0C7FD002383F30F
:100B60001188BFF36F8F0323184602DF7FE794F9E4
:100B700043206FF30003002A84F8C130C0F298804C
:100B800094F86400C0F3C00100F007000FF084FE89
:100B900094F8642094F8653002F003012831C2F320
:100BA0004002C900D14003F003022832C3F34003DE
:100BB000D200DA40638D03F23F13B1F5A07F2CBF62
:100BC0005B1803F5A073B2F5A07F2CBF9B1803F54B
:100BD000A0730344804A81480721E3FB00211046AB
:100BE00077A3D3E90023FFF78BFADDE90A1320F09E
:100BF0007F4220692261904235BF171A801A002077
:100C000000270A46002B8BD157EA010C88D1002817
:100C100058D019461F4683E794F87E3003F0180336
:100C2000182B7FF4ECAEA18EB4F876218B1D9A427E
:100C3000C4BF931F5B1AB4F87211CCBF9BB21346AA
:100C4000994200F09C80A4F87231A4F87431A4F8A1
:100C50007821D4E63D2684F84061314620460CB028
:100C6000BDE8F0410AF02EBE0023A4F87831A4F8C4
:100C70007431C4E6012633461BE7628E052A97BF0E
:100C8000013240F2E2434FF4FA7392B203FB02F2F4
:100C9000B4F87C3142F2107101FB0323013BB3FB3A
:100CA000F2F39BB2A4F87E31002B7FF4C8AE00E7CC
:100CB00094F86500012100F007000FF0EFFD67E7F1
:100CC00035461DE7002D43D00027114638463B46E8
:100CD00026E70023A4F8743120460CF0DBF908E77E
:100CE00038461DE707F0ECFE0146A0B30023A4F848
:100CF0007831238EC3801B230371006807F0B2FE96
:100D0000EEE694F865316BB3013B84F8653104F18C
:100D1000C40840460BF014FFB8B340460BF010FF78
:100D2000B8B30023638779E6082120460AF0CAFD9C
:100D30009DE6A7B9D4F868315A0813F0010336D1FB
:100D4000C4F868218CE63E2120460AF0BBFD8EE601
:100D5000002EB9D18BE60123A4F87831C0E6134602
:100D60000126A6E60AAA0BA92846FFF74DFBDDE9F6
:100D70000A231343CBD0237884F86531C7E7B4F84E
:100D8000781100297FF43BAE5FE7FF200AF05CFD9D
:100D9000C3E70246D4E91A0105F058FB0028C0D188
:100DA00094F848301B0744BFA38E638736E642F0B1
:100DB00000421E46C4F868213B467AE6AFF3008045
:100DC0008D49FD1A070000002DB1000084A4010028
:100DD000C4A50100689F01008C49FD1A00CA9A3B16
:100DE0002DE9F04F87B0CDE90423BDF84420037806
:100DF0000292BDF84820BDF840A0BDF84C90878F06
:100E0000019104460392002B00F0F380013FBFB232
:100E1000A368D4F8FCB0A7EB090292B2002B0092B1
:100E20000ADAE168626823F0004391422CBF8B44E8
:100E30009344A360ABEB030B94F86400C0F3C001D0
:100E400000F007000FF028FDB4F83280B8F1050F6C
:100E500040F2C580009B18FB03F81FFA88F840F2A7
:100E6000E246BAF1050F40F2AE8094F8652094F89E
:100E7000641002F003032833C2F34002DB00D340C6
:100E800001F003022832B3F5A47FC1F340014FEA19
:100E9000C20222FA01F238BF4FF4A473B2F5A47F64
:100EA0002CBF9B1803F5A47303F2D51303447C4AAB
:100EB0007C480721E3FB00214FF09613A3629623A1
:100EC0001046A38574A3D3E90023FFF719F955460B
:100ED00020F07F4040F2E24303FB05F516FB08F6E5
:100EE000B3B22061B3FBF5F815FB08F080B2834282
:100EF0001FFA88F659D26B49C01A80FB010166A31C
:100F0000D3E90023FFF7FCF820F07F408344E38E11
:100F1000B4F804211344994494F84330A9EB070929
:100F20004E44DB09E6866BD15F4A6049604840F673
:100F3000671315F0DAFB002787F31188BFF36F8F73
:100F40000323184602DF2E46029BA386039BA4F8C8
:100F50007C3129462046A4F832A00CF035F8554BD8
:100F6000A18E2B44881DB3FBF5F39AB29042A4F8EE
:100F7000762104D2C1F57F41FA310A4492B2019B35
:100F8000A4F8722113B10023A4F87E315B463246E7
:100F900039462046FFF780FC94F8703143F0010396
:100FA00084F8703107B0BDE8F08F1B1A3D4883FB11
:100FB000000139A3D3E90023FFF7A2F820F07F4016
:100FC000ABEB000BA3E74FF096130AF10105A36208
:100FD0009623A385ADB20A204FF4FA737CE7009BF9
:100FE00008F1010818FB03F81FFA88F84FF4FA76A5
:100FF00037E7C38E1F44B0F804311F44BFB207E780
:10100000E26C0099636D274F02FB113363650FF0AB
:1010100077FE064694F86401C0F342000FF072FEBA
:10102000064405FB06F6244B06F5742606F23F2619
:10103000A3FB0636B60C636DE66406FB08F06A088F
:101040000344963A934228BF1346C4E91423049BF1
:1010500040F2E24909FB03F3E3650023A0FB07012B
:10106000C4F86C310CA3D3E90023FFF749F8134B04
:10107000059AABEB000BA3FB0230800A09FB00F0E2
:10108000A0FB070104A3D3E90023FFF739F8AE1B47
:1010900020F07F4758E700BF8D49FD1A0700000088
:1010A0008C49FD1A00CA9A3B84A4010040A00100AB
:1010B000689F01007FC3C90183DE1B435917B7D165
:1010C0002DE9F04F134615460A6853F8087BD2F80D
:1010D0000090B0F82EC00246044652F82EABD0F86D
:1010E0001E0094F81C800E469178628CA5F808C00A
:1010F0009970D4F82A306B6091B0D4F83A30C5F8C2
:101100002230ADF83C2094F83E2085F826200E9041
:1011100010AA12E9030005F122030C90ADF8341077
:101120001846052105F016FB95F8273000F03F0022
:1011300060F3050385F8273094F83F30C3F30402C9
:1011400085F82820A28EEA820128C8F3801808D9E1
:1011500003F01F031B3303F01F030B2B01D892B2C4
:10116000BAB90022C9F8142095F82C3062F30003B4
:1011700085F82C300126E56826715046214607F097
:1011800065FC28682E71294611B0BDE8F04F07F0C4
:1011900069BC336800215960E38EB5F816B02B8323
:1011A00040F2E24303FB0BFB3846638E0B930BF0DC
:1011B0001FFF94F83F2097F86411520962F343012E
:1011C00087F864110FF09CFD0A9097F86401C0F352
:1011D00042000FF097FD0A9A10440BFB00F0BA4A48
:1011E00000F5742000F23F20A2FB00204FEA5B02D2
:1011F000800C963A28636A6394F8312040F2E24307
:1012000002FB03F36B64238FA7F87C315946384601
:101210000BF0DAFEAD4BAE4AC7F880215B44B3FB5E
:10122000FBF39AB2A7F87621298B881D824204DD50
:10123000C1F57F41FA310A4492B2A7F872216B6876
:10124000C7F86831234613F81C2FC2F340120A92E4
:10125000DA0700F11281BDF83430A4F823300C987D
:1012600084F81E804FF48073C4F81F00A383EB8AB8
:10127000E3842B8B2385B7F87C31638597F8643141
:10128000C3F3420384F82C30384609F0DDFFA8820E
:10129000E08021465046746807F0D8FBAB8AE380B3
:1012A0001C2323710A9BD4F80080002B40F0D980C6
:1012B0000A9B23772146404607F0D4FB95F8494026
:1012C00095F8488004F00704012120460FF0E6FA63
:1012D00008F00708824608F003002830C8F34008E9
:1012E00004F00303C00020FA08F02833B0F5A47F0F
:1012F000C4F340044FEAC30338BF4FF4A470E34083
:10130000B3F5A47F2CBFC01800F5A470DFF8C4812A
:10131000714B00F2D51050440721E0FB083118460C
:101320004FF09613C5E9033300243123BB607C6082
:1013300063A3D3E90023FC60FEF7E2FE20F07F40C8
:1013400038610B99F3682D6B40F2E24202FB0133E6
:1013500003F2B341A1EB0A0A22460221012005F063
:10136000ADF8484609F07CFC0246AAFB080192460B
:1013700053A3D3E90023FEF7C3FECDF80490B3686E
:101380005649009120F07F480AF102023A3BD2B25E
:1013900043440121204606F045FC0128ABEB05053E
:1013A0007AD099F82430DB0753D4384609F04CFF43
:1013B000484BA5FB03A9044641A3D3E900235046AB
:1013C0004946FEF79DFE464BB668464A079220F016
:1013D0007F45A5FB0331BAEB0300434B05934FF464
:1013E000F573069708933B694FF0000BCDE903B303
:1013F0004FF0070303FB051169EB01014FF47A720B
:101400000023FEF77DFE03343A3EE4B2CDE90150FD
:10141000CDF80080334622460121584606F02CFBC9
:1014200010F0FD0F0DD0314A3149324840F2EB1334
:1014300015F05BF98BF31188BFF36F8F0323184608
:1014400002DF01220221104611B0BDE8F04F05F085
:1014500035B80023012200931846114606F0A0FB80
:10146000A3E795F8273043F0400385F82730281D7F
:101470000EF050FD012328851BE71C4A1E491D481C
:10148000FD2315F032F9002383F31188BFF36F8F2A
:101490000323184602DFDEE607F07EFB814580D09D
:1014A000124A1649134840F2922315F01EF984F3AC
:1014B0001188BFF36F8F0323184602DF71E700BF67
:1014C0008D49FD1A0700000083DE1B437FC3C9015D
:1014D000404B4C0000CA9A3B8C49FD1AA9FC000005
:1014E0008D49FD1A75FC0000E9FC000060AA0100AE
:1014F00048A50100689F010058A20100BCAA010094
:10150000F0B5C468636883B00546002B4FD110F076
:1015100017FE002010F03AFE0021084610F028FEC9
:1015200000222521082010F065FE3D4B019301A803
:1015300010F04CFE3B4940F25B6010F0FBFE237A5A
:10154000C3F3420262F30613237220460FF0DEFD5E
:1015500027682E6838460FF03BF906446A6806F1A2
:101560000901012011F00EF811F0CCF8204609F025
:1015700085FB811C3246C9B238460FF037F9054663
:1015800000BB20460FF0CCF810B9002003B0F0BD2E
:10159000254A2649264840F2294315F0A6F885F346
:1015A0001188BFF36F8F0323184602DFEDE793F82E
:1015B0002C309B07ABD01F48214610F07FFD10F068
:1015C00065FEE2E7184A1C49194840F2114315F03C
:1015D0008CF81A4B0721A5FB030301FB05310EA371
:1015E000D3E90023FEF78CFD15490246154815F096
:1015F0007CF8002585F31188BFF36F8F032318460D
:1016000002DF1148214610F059FD10F03FFE6FF047
:101610008B00BBE7AFF3008000CA9A3B00000000DC
:10162000D6BE898E555555009CAC010038A10100ED
:10163000689F01007509010040A001008D49FD1A55
:101640004CAD010020AD0100110D010000000000B3
:101650002DE9F041C468A28A4FF6FF739A4282B026
:1016600000F0DF80054610F007F82B89628B208C94
:10167000A3831A4492B2104494F82730E28380B2D4
:10168000411C21845E064FF00001618304F12201B8
:1016900000F1A18003F03F000B4694F82810009061
:1016A00004F129000EF0EEFB0646D4E90C31A28BC2
:1016B00002FB0333A26B1344E26B8B4294BFD2183C
:1016C00052188A4228BF0A46E263616C226C94F881
:1016D00049301144616494F8622094F82C10C3F3EB
:1016E000020363F3061112F004024FF0000384F8C2
:1016F0002C10A363236478D010F022FD002010F09A
:1017000045FD201D10F062FD2389A17A40F25B6047
:1017100043EA014110F00EFE30460FF079F8214601
:10172000594810F0CBFCA08910F020FF94F8482015
:1017300094F84900C2F3C003002102F0070200F050
:10174000070010F05DFE204610F040F827682E6874
:1017500038460FF03DF806446A6806F1090100209A
:1017600010F010FF804610F0A1FF002010F0B8FF2D
:10177000E36B94F8490003F12F02636C00F007005B
:10178000012103EB420510F073FD4544054494F834
:10179000490000F00700022825D004280CBF4FF4B0
:1017A000BC73282301211D4410F064FD284410F06F
:1017B0006FFFA18A03313246C9B238460FF016F8DE
:1017C0000546002834D120460EF0AAFFD0B90020EB
:1017D00002B0BDE8F0810A4603F03F03218D0EF010
:1017E0009DFB064661E71823DCE7D4E9130104F00A
:1017F0002DFE002880D194F8623043F0040384F871
:10180000623079E7214A224922484FF4B07314F03C
:101810006CFF85F31188BFF36F8F0323184602DF37
:10182000D5E71D48214610F049FC10F02FFDCEE70A
:10183000164A1A4917484FF4AB7314F056FF184B69
:101840000721A5FB030301FB05310DA3D3E9002309
:10185000FEF756FC13490246134814F046FF0025D4
:1018600085F31188BFF36F8F0323184602DF0F48FB
:10187000214610F023FC10F009FD6FF08B00A7E764
:1018800000CA9A3B00000000351A0100D8AD0100E3
:1018900038A10100689F01007509010040A0010006
:1018A0008D49FD1A2CAE010020AD01005509010043
:1018B000012B10B51C4605D10448117814F008FF1F
:1018C000204610BD6FF00C00FBE700BFA8B0010080
:1018D000012B10B51C4605D10448117814F0F8FE10
:1018E000204610BD6FF00C00FBE700BFB6B0010052
:1018F00070B58AB01B491C4803AA00F04BFF0021B9
:1019000003A801F041FF011E07DA184814F0E0FEB9
:101910004FF0FF3420460AB070BD1349144814F04C
:10192000D7FE002001F0D2FC064610B10146114856
:10193000ECE7114D114814F0CBFE0FCD05AC0FC4F0
:101940002B6823600E4900963346032205A802F057
:101950002FFA044610B101460A48D7E70A4814F0A6
:10196000B7FED7E7C4B00100CBB00100DDB0010085
:1019700013B1010038B10100809B010058B1010092
:10198000C89B010071B101008EB10100014B1B68C1
:10199000184700BF50060020014B1860704700BF79
:1019A0005006002030B585B004460D4610220021B7
:1019B000684617F093FE02238DF802302A46044B46
:1019C00001932146684614F059FA05B030BD00BFB6
:1019D0008D19000080B505460E461746984613F04F
:1019E00063FF034617F0FEFEDFF81890044649F83F
:1019F0000030424630463946A84754F8090000F006
:101A0000C1FA00BF080000002DE9F047058B04462D
:101A10002807904611D4022905F0070540F0CC8034
:101A2000204614F0DAFE78B10138218B042811D851
:101A3000DFE800F0C2106D85950001290CBF45F06C
:101A4000100545F02005258388F31188BFF36F8FBB
:101A5000BDE8F08701F0070AAA4500F0A58000273D
:101A6000B9463E46A368002B00F0BC8041F0080157
:101A7000218388F31188BFF36F8FA168002900F0DC
:101A8000BA800D68002900F0B680D1F80480334692
:101A900052462046C047002D76D02B6829461D4669
:101AA000F0E701F007035A1F012A1BD8002221F09A
:101AB0000701062B276889B2C4E9002209D13B46F9
:101AC00003E0628B013262831B68002BF9D141F085
:101AD00002012183204614F080FE00287AD041F0D4
:101AE000200176E0042B0AD121F0070189B221837D
:101AF000204614F072FE10B141F020012183218BA9
:101B000001F0070AAA454FD00027B946AAE7236982
:101B100021F0070141F00601062DD3F80090218342
:101B20002DD1B9F1000F3FD041F00801218388F396
:101B30001188BFF36F8F3A492046C84729E021F04A
:101B40000701236941F0040189B2042DD3F8049000
:101B50002183E6D000273E464FF0040A82E721F0B9
:101B60000701236941F0050189B2052DD3F80890DA
:101B70002183D6D000273E464FF0050A72E70027A2
:101B80003E464FF0060A6DE72B4687E7B9F1000F96
:101B9000D1D1EFF31188202383F31288BFF36F8F25
:101BA000238B23F008032383258BEA062ED525F00B
:101BB0001003238305F007056669218B002EBFF60D
:101BC00070AF00232768C4E9003321F0070141F01A
:101BD00001012183218B01F0070AAA454FF000097A
:101BE0007FF440AF002F9CD041F00801218388F39F
:101BF0001188BFF36F8F002FC8D03D683946334638
:101C00005246204614F015FE2F46F4E7AB067FF54A
:101C10001BAF25F02003238305F0070500E700BF75
:101C20005F680100014B036000207047449C010085
:101C300030BFFFF7FDBF00BF2DE9F0410B4EDFF8CD
:101C4000308006EB0807CC1B054632460949204682
:101C500017F01CFDA01942460021083C17F03EFD7C
:101C60006C6707F10800BDE8F08100BF00000000CC
:101C7000040000007C9B0100054B5A699B689A4256
:101C80001FBF044A536843F080535360704700BF3E
:101C9000E026002000ED00E070B5264B15469A6A5C
:101CA00012F0100F9A6A14BF1124102412F0080FBA
:101CB0009A6A18BF1224920706460AD5586B9A6A88
:101CC000140634D519B19A6A22F080029A6213245C
:101CD00001E06FF01500174B9A6A12F0010F9A6A33
:101CE00018BF142412F0200F9A6A18BF1524D206C8
:101CF00002D49B6A9B070AD50E4B5B68190506D573
:101D0000314600F01FFA10B180F309880224094B14
:101D10009A6A920642BF5A6A22F400525A629A6A3A
:101D200042F0FF029A6200232B70204670BD6FF0D4
:101D30001500CCE700ED00E0134B9A6A12F0007F2B
:101D40009A6A14BF1E201D2012F0807F9A6A18BF65
:101D50001F2012F4002F9A6A18BF212012F4802F3E
:101D60009A6A18BF222012F4003F9A6A18BF2320F3
:101D700012F4803F9A6A6FEA02426FEA12429A6254
:101D800018BF2420704700BF00ED00E010B5194BCC
:101D90000246986A9C6A10F4805F14BF17201620D0
:101DA00014F4006F9C6A18BF1820A40509D5986B1D
:101DB000986A000404D51AB19A6A22F400429A6221
:101DC00019200C4B9A6A12F4806F9A6A18BF1A2075
:101DD000D2050CD49B6A13F4005F18BF1C20054A7F
:101DE000936A43F47F43936200230B7010BD1B2062
:101DF000F5E700BF00ED00E0F0B5484B5B688BB045
:101E00000446C3F30803002585F31188BFF36F8FE1
:101E100002F07F40B0F17F4F11D102F00C00082892
:101E20000DD010074CBF0C4601250022033B8DF856
:101E30000720032B05D8DFE803F0246367602C46F6
:101E4000F3E700239DF80720CAB902AE04F120078A
:101E500020686168324603C20834BC421646F7D196
:101E6000099A002D54D0C2F3080121B96FEA522219
:101E70006FEA4222099202A9184614F0D4FD0BB071
:101E8000F0BD264BDA6A9107DBD4DA6A002AD8DB88
:101E9000DA6A5200D5D55A69A16942F480725A6152
:101EA000BFF34F8FBFF36F8F5A6931F8021C22F4D2
:101EB00080725A61BFF34F8FBFF36F8F4DF602727E
:101EC00091420AD09A6AD2B24AB10DF107020121B9
:101ED0002046FFF7E1FE0346B4E72368B2E79A6ABB
:101EE00012F47F4F05D00DF107010120FFF74EFFDF
:101EF000F1E79B6AB3F5803FA3D3FFF71DFFEAE745
:101F00000DF107020021E3E70DF107010020EDE7E5
:101F100022F4FF7222F00102ACE700BF00ED00E006
:101F2000044B5A6942F010025A615A6922F00802C1
:101F30005A61704700ED00E0EFF30880EFF309818C
:101F400001B57246FFF758FF01BD00BF0B4880F393
:101F5000088811F029FF202080F3118808484FF4E9
:101F60000461401880F30988EFF3148002210843CC
:101F700080F31488BFF36F8F00F0A4F800400020B6
:101F800040320020084B9B6883420BD1EFF305835E
:101F900043B1064B5A6842F080525A605A6A22F4A2
:101FA00000425A6213F086BCE026002000ED00E0FB
:101FB00014498A684FF030001044EFF3098C80E830
:101FC000F01F202080F31288BFF36F8F0E4F4FF069
:101FD00000664A698A603E60506F0C4C2060906FCA
:101FE0000023936780F3118804B5104600F00EF9C2
:101FF000BDE8044002F1300090E8F01F8CF309883E
:1020000070470000E026002004ED00E08811002069
:102010001EF0040F0CBFEFF30880EFF30980816915
:1020200011F8021C0229FFD001B5724614F001FD1F
:1020300001BD00BF40B2002807DB044A410901236B
:1020400000F01F00834042F82130704700E100E0BB
:1020500040B200280CDB4309064900F01F00203382
:102060000122824041F82320BFF34F8FBFF36F8FCF
:10207000704700BF00E100E0054B420900F01F007F
:1020800053F82220012303FA00F01040704700BFEC
:1020900000E100E040B20028A8BF00F1604001F17B
:1020A0000101B8BF064B4FEA4111ACBF00F56140DA
:1020B00000F00F00C9B2B4BF195480F80013704784
:1020C00014ED00E00F4A08B50F4B22F07F029A6032
:1020D000BFF34F8FBFF36F8FD3F8882022F47002C5
:1020E000C3F88820EFF3148323F0040383F31488E8
:1020F000BFF36F8F12F070FD13F010FD00F05CF86D
:1021000012F0AEFD0000000000ED00E042F8203CBF
:10211000009B42F81C3C0A49019B42F8183C029B78
:1021200042F8143C21F001014FF0807342F8043C66
:1021300042F8081C0023203A02658367704700BFFD
:10214000D5190000094A0346906870B113F1160FC3
:10215000406E05D0A0F140029A4205D8834203D2D6
:10216000814228BF0020704700207047E0260020F1
:1021700008B51546094A0A4B9060426F1A600E4630
:1021800000F044F82C4686F309880020054B984758
:102190002046002100220023034C2047E026002097
:1021A00088110020516A0100D5190000014B10224E
:1021B0001A61704700ED00E0044800232021C21896
:1021C0000133302B82F80013F9D1704700E100E0B1
:1021D00008B5EFF30583064A103B02EBC30152F842
:1021E000330049688847BDE80840FFF745BD00BF98
:1021F00058990100024B034A0348012100F076B8C8
:102200000000042000000020449C0100426E054BA9
:10221000403A1A60044A4021C3E9011218460121DC
:1022200000F06EB88C11002000000B15084AC2F8AF
:1022300098000B6823F01F03034343F01003C2F818
:102240009C308B6843F00103C2F8A030704700BF98
:1022500000ED00E02DE9F043DFF8608085B00E4628
:102260001F4604464FF00009B14523DA6068D8B133
:102270003FB1411E08421BD11F2819D923681942BA
:1022800016D12368019314F006FCA368034303935B
:10229000D8F89050C5F30725D0B2013DA84207D821
:1022A00001A9FFF7C3FF421C09F101090C34DBE768
:1022B0006FF01502104605B0BDE8F08300ED00E0B8
:1022C000044B0522C3F89420BFF34F8FBFF36F8FE9
:1022D000704700BF00ED00E0BFF35F8F024B0022AC
:1022E000C3F89420704700BF00ED00E010B5034C28
:1022F00001232278FFF7AEFF207010BD32270020A7
:1023000008B50B4A00231278FFF7A4FF10F1160F4F
:1023100007D0084A0021D2F89030C3F3072398422F
:1023200000DB08BDC2F89800C2F8A0100130F2E747
:102330003227002000ED00E02DE9F043534B544CD0
:10234000D3F890302568C3F307239D4285B000F28F
:102350009A80FFF7C1FF00200C2685421AD14D4C10
:102360004D4F25706846FFF75DFCDFF82081DFF8F0
:102370002C9106460025AE4213D123784349002014
:10238000D1F89020C2F30722934276DBFFF798FF43
:10239000002042E0616806FB0011FFF747FF0130B3
:1023A000DBE7009800EB05114FEA051CCB683B40CA
:1023B000B3F5000F48D00AD8B3F5001F30D0B3F5FD
:1023C000800F36D0B3F5801F10D00135D3E7B3F1BD
:1023D000807F42D0B3F1007FF7D150F80C3088688D
:1023E0004A6814F058FB40F4802009E050F80C30A3
:1023F00088684A6814F04FFB40F0885040F4302061
:10240000CDE901230390D8F890302078C3F3072357
:10241000013B98422AD96FF0150005B0BDE8F08362
:1024200050F80C3088684A6814F035FB40EA09001F
:10243000E6E750F80C3088684A6814F02CFB40F04E
:10244000E06040F40030DBE750F80C3088684A6800
:1024500014F021FB40F08270D2E750F80C3088680D
:102460004A6814F018FB40F08870C9E701A9FFF72B
:10247000DDFE237801332370A7E7C1F89830C1F857
:10248000A00001337CE74FF0FF30C6E700ED00E02D
:10249000509C0100322700200000F0FF00000811CE
:1024A00008B5024B1B689847002008BD9811002012
:1024B000034B044A1860937843F00203937070470B
:1024C000981100205406002008B50649064821F05E
:1024D0000701C1F1005202F5802214F0BAF8002081
:1024E00008BD00BF0F4F00209C11002070B541694E
:1024F000867A0B4D044659B1437ADB0706D42C2368
:1025000003FB06535B6A1B689B6898470023636163
:102510002C20214606FB0050BDE8704016F0E4BDBB
:1025200098090020024B2C2202FB0030704700BFAC
:1025300098090020827A064B2C2101FB02339A6A0B
:102540001B7F1B33801A23F00303B0FBF3F07047AB
:102550009809002038B5074B827A2C2404FB0233FB
:102560005B6AD3E901240C601568FFF7E3FF04FB05
:10257000005038BD980900202DE9F04385B005468C
:102580006846039190461C4616F0D2FFDDE90067CD
:10259000EFF31189202383F31288BFF36F8F6B8BC6
:1025A000002B41D02A8B9A4225D9002200232846AD
:1025B00012F010FC0446F0B189F31188BFF36F8F5D
:1025C000039B002B41D032463B46684616F0D4FFB1
:1025D000A27A264B2C2101FB023320465B6A1B6842
:1025E00003A91D68DDE90023A847606170BB204690
:1025F000FFF77CFF24E0698B4B1E6B8389F3118806
:10260000BFF36F8F2B7F2A8BAC6A1B3323F003033E
:10261000521A02FB0344154B154AEB1A9B10534305
:10262000A3722B7FE372CBE789F31188BFF36F8F1F
:1026300023464246284612F0CDFB04460028BFD16F
:102640000024204605B0BDE8F08363610123002526
:102650002381039B6382E27A6560294604F11800B6
:1026600017F03CF863692582E360EAE798090020E7
:10267000A38B2EBA70B50C4C2C2500B970BD037A13
:102680004668013BDBB20372002BF7D1C3604360A5
:10269000837A05FB03431B6A13B198473046ECE786
:1026A000FFF724FFFAE700BF980900200E4A012334
:1026B000C2F840354FF080424FF08051C2F8783573
:1026C000D1F83001082808D1D1F83411052904D8EF
:1026D0000648415C09B1C2F838364FF08043012208
:1026E000C3F880250020704700E0014025B20100BA
:1026F00020B1034B800143F001031847704700BF2E
:10270000C09B010008B5044816F027FB00280CBF49
:102710006FF01200002008BDD89801000378012B4B
:1027200030B513D0022B27D07BB9194B0A4603F1E1
:10273000100453F8045B42F8045BA342F9D11B7800
:10274000137043884B731B0A8B7330BD104B0A46C2
:1027500003F1100453F8045B42F8045BA342F9D17F
:102760001B78137043684B73C3F307221B0CCB73A6
:102770001B0A8A730B74E8E700F1100350F8042B6E
:1027800041F8042B9842F9D103780B70DDE700BFC4
:1027900045B2010038B50C46511C154614F0A1FA9B
:1027A00000280BDB1C492046FDF7C4FC20B11B4967
:1027B0002046FDF7BFFC40B92870002038BD01203D
:1027C000FAE70220F8E70320F6E715492046FDF76F
:1027D000B1FC0028F3D013492046FDF7ABFC0028DC
:1027E000EDD011492046FDF7A5FC0028E9D00F499E
:1027F0002046FDF79FFC0028E3D00D492046FDF759
:1028000099FC0028DFD00B492046FDF793FC0028F7
:10281000D9D06FF01500D1E756B201005DB20100CA
:10282000C4B0010066B201006FB2010079B20100CC
:1028300085B201008FB2010008B514F083FA12F0DE
:102840003BFF044B1B680BB10A209847BDE80840CA
:1028500012F046BFA811002038B50546054814F00F
:1028600035F9044620B101210C3014F090F9257699
:10287000204638BD740A00200F2810B50ED80D2848
:102880000ED90B4814F022F9044628B101210C306E
:1028900014F07DF902232376204610BD1328F0D0D2
:1028A00009B10448EEE7BDE810400220FFF7D4BFAD
:1028B000A00A0020F009002070B5C6683378B6F889
:1028C000014083B90F21204601F0F4FDF37805465D
:1028D00050B90A4A118831B96FEA04506FEA1050B2
:1028E0001080074A137070BD4372012101F058FD3A
:1028F0002846BDE8704001F029BD00BF1827002020
:102900003327002010B5084C0146062294F86F00CA
:1029100001F0F0FF38B994F86F000449BDE81040A9
:10292000052201F0E7BF10BDC00400202BB201005A
:1029300010B5012104460C3014F05BF92146034A1E
:102940000078BDE81040002314F0BDBA249D0100BA
:1029500010B5012104460C3014F04BF92146034A0E
:102960000078BDE81040062314F0ADBAF49C0100D5
:1029700070B52F4814F0C3F80446002857D0017EE4
:10298000022932D0082902D1038A032B02D8FFF78B
:1029900071FE20E004210C3014F02BF9FF22438853
:1029A00006886276228AC6F30B009A42A08301D081
:1029B0002046ECE70F2101F07DFD05460028F7D009
:1029C00001F0ACFD320B60762146284614F05CFE27
:1029D000284601F0BBFC174BD3F84C313BB3BDE8A4
:1029E00070401549154816F02CBC038A012BCED92E
:1029F0000C3014F0FEF80546007814F000FA10F0E0
:102A000002060DD10E4A0F490F4840F6CF3313F09E
:102A10006CFE86F31188BFF36F8F0323184602DF25
:102A20000A4A28780423214614F04DFAC0E770BD05
:102A30000C060020C004002074060020D00A0020EC
:102A40009BB20100CFB20100FDB20100D49C010095
:102A50002DE9F047884616468246002879D0BFF314
:102A60005B8FDFF8F490002359E8004F49E800320B
:102A7000002AF9D1BFF35B8F002C6AD02046FFF704
:102A800059FD364D0C2303FB005027464388534520
:102A900011D0BFF35B8F59E8003F49E80072002A6C
:102AA000F9D1BFF35B8F002B53D01F463846BDE8EA
:102AB000F047FFF7DFBDA6420FD0204614F001F823
:102AC00004F10C09022301214846237614F05FF833
:102AD000328AF168484614F06BF82046FFF72AFD69
:102AE0000C2606FB00504368ABB1B8F1000F12D1C1
:102AF0002046FFF71FFD06FB005001214268D2E986
:102B00000003127A03F01F06B1405B09DAB100EB53
:102B1000830014F086F92046FFF70CFD0C2606FB17
:102B200000508368002BC1D02046FFF703FD70439F
:102B300005F800802046FFF7FDFC06FB0055A8685D
:102B400012F07AF9B2E7C94300EB830014F0D2F92E
:102B5000E1E7BDE8F08700BF08060020AC110020C7
:102B6000094BBFF35B8F1A68BFF35B8F02F009025A
:102B7000BFF35B8F53E8001F43E800200028F9D122
:102B8000BFF35B8F704700BF9405002010B5C1E90B
:102B900000239DF808300B720C46FFF7CBFC034B6B
:102BA0000C2202FB00335C6010BD00BFAC110020A2
:102BB0002DE9F0474FF0FF3206464FF0FF3318483B
:102BC000884613F083FF044638B300F10C07012157
:102BD000384613F0DCFF012323762046FFF7AAFCDA
:102BE000104D4FF00C0909FB00504FF0000A4680D1
:102BF0002046FFF79FFC09FB0050C0F808A02046C4
:102C0000FFF798FC09FB005503213846C5F804A0DE
:102C100013F0C8FF068080F802802046BDE8F087E8
:102C2000480A0020AC110020034B0146D3F86C0188
:102C300082689268104700BFC00400202DE9F84365
:102C4000044600F10C06304613F0E3FFB4F81080A0
:102C5000B8F1010F054604D82046BDE8F843FFF758
:102C600009BD3046022113F0C4FF0746007814F076
:102C7000C6F810F0010906460DD10F4A0F49104859
:102C800040F6EF7313F031FD89F31188BFF36F8FB6
:102C90000323184602DF05230A4A3878214614F038
:102CA00012F9B307D8D56369A4F8108013FA85F533
:102CB000E560BDE8F88300BF9BB201001AB30100D4
:102CC000FDB20100AC9C010038B50C4612F0F4FCDA
:102CD000237E022B0AD0082B19D121460F4813F06E
:102CE000F9FE0F490F4816F0ACFA0BE0E3681878CC
:102CF00014F085F8C207054602D52046FFF79EFF6F
:102D0000AB07EAD4002412F0EBFC204638BD204685
:102D1000FFF7B0FC6FF01504F5E700BF0C060020CC
:102D200074060020D00A00200148042114F079B86C
:102D3000940500200048704733B30100014812F0A9
:102D400071BA00BF6406002038B505460C4619B9B3
:102D5000FFF72EFF0446A8B140F635439D4209D146
:102D60002046FFF761FF054650B12046FFF782FC81
:102D7000284638BD0548214616F0ABF9FFF7DEFFBF
:102D80000025F5E76FF06805F2E700BF14060020A4
:102D900038B502460B46244DD5F8541109B9002028
:102DA00038BD05F5987012F081F80028F7D100229F
:102DB000002305F5AA7012F00DF8044668B91B4A05
:102DC0001B491C4840F6DE3313F08FFC84F3118856
:102DD000BFF36F8F0323184602DFD5F8480120B1F7
:102DE000FFF748FC0023C5F84831204613F09DFE4C
:102DF000C5F848012046FFF717FF98B10E4812F0BA
:102E00001BF82046FFF796FB0C4B0C2202FB003010
:102E10001F2140882246FFF71BFE2046FFF72AFCB1
:102E2000FFF78CFF0120BBE7C00400209BB201002C
:102E30003AB30100FDB20100F0050020AC11002002
:102E40002DE9F04F064687B015460C4631B9FFF71D
:102E5000AFFE044648B96FF068007BE0887AFFF760
:102E600061FB484B834240F0868001220021684686
:102E700016F048F92046FFF75DFBDFF80C910C23B4
:102E800003FB0090C0F808D0204613F04EFE014628
:102E90003E4816F01EF9FFF751FF16F0A3FC3C4B1D
:102EA0001A583C4B9A4222D1DFF8ECA0DFF8ECB084
:102EB000364816F023F9002180464FF4A020FFF792
:102EC00067FF074688B940F2B11352465946344865
:102ED00013F00BFC3348314613F007FC87F31188DD
:102EE000BFF36F8F0323184602DF4445E0D14FF450
:102EF000A0220023684611F0D9FF074698B140F29E
:102F0000B713254A2849264813F0EFFB27483A46CD
:102F1000314613F0EAFB002383F31188BFF36F8F70
:102F20000323184602DF2046FFF704FB0C23584317
:102F300019F80060BEB12046093EFFF79BFB092E41
:102F40000ED8DFE806F01B0D0D0A050D0D0D0D184E
:102F50006FF00B0007B0BDE8F08F6FF00C00F9E7E1
:102F60006FF00400F6E715B12C600020F2E7204670
:102F7000FFF780FBF9E76FF01500EBE76FF06E00ED
:102F8000E8E700BF480A0020AC110020140600202A
:102F900008000000481000209BB201003EB3010071
:102FA000FDB2010046B3010066B301006FB301003A
:102FB000F7B50022114640F60340FFF741FF0446F3
:102FC000002853D1FFF7CCFD214601AA41F20300AE
:102FD000FFF736FF0446002848D1019AB24DD16868
:102FE000D1F80100D1F8051005F1780303C31046AC
:102FF000FFF740FB214601AA41F20100FFF720FF45
:10300000044698BB0198C3685A7885F870205A889E
:10301000A5F872201A7985F87120B3F80720A5F871
:103020007420B3F80530A5F87630FFF723FB21466E
:1030300001AA41F20200FFF703FF0446B0B9019F65
:10304000FA6805F18006531C413218685968344605
:1030500003C4083393422646F7D13846FFF70AFBEC
:1030600095F87C30580604D46FF01204204603B063
:10307000F0BD01AA002142F20300FFF7E1FE044681
:103080000028F3D1019B894EDA68D2F80100D2F80A
:10309000051003C61846FFF7EDFA214601AA42F2D1
:1030A0000200FFF7CDFE04460028DFD1019CE36853
:1030B000B3F8012091B249B1D97839B1A5F804210A
:1030C000DA78114606F1280016F01CF82046FFF7C2
:1030D000D1FA95F87C601F2316F02006A5F8203160
:1030E00017D1022140F66D40FFF762FD044600282B
:1030F0007BD002210C3013F055FD01230370467084
:103100002146324640F66D40FFF79AFE04460028FD
:10311000ACD195F89C30190712D501AA002142F2D2
:103120001C00FFF78DFE044600289FD10198C3685C
:10313000D3F80120D3F80530C5E93823FFF79AFA10
:10314000082142F20100FFF733FD044600284CD06D
:1031500008210C3013F026FD95F8D83095F8D920C9
:1031600013F0020F14BF2F230F2312F0090F18BF03
:1031700043F40063002203701B0A43708270C27024
:10318000027142718271C271214642F20100FFF761
:1031900057FE044600287FF469AF95F87C30B5F8F7
:1031A00004119A0624D4C9B901AA41F20500FFF717
:1031B00047FE044600287FF459AFB5F80431019C5E
:1031C0004BB9E368B3F80120A5F804219A88384880
:1031D000114615F097FF2046FFF74CFA082140F6FC
:1031E0000140FFF7E5FC044638B96FF068043DE79D
:1031F0000029F3D16FF0040438E708210C3013F0F4
:10320000D1FC102303708823437002230022C37073
:1032100020238270027142718271C371214640F68F
:103220000140FFF70DFE044600287FF41FAF014662
:1032300001AA4FF60140FFF703FE044620BB0198A8
:10324000FFF718FA214601AA4FF60240FFF7F8FDF2
:103250000446C8B90198C368B3F80130A5F8C13075
:10326000FFF708FA95F8C1305B070DD501AA214692
:103270004FF60340FFF7E4FD30B90198C3685B786F
:1032800085F8C030FFF7F6F900F0C6FB04460028C9
:103290007FF4ECAE01F002FC044600287FF4E6AEB9
:1032A000FFF742FDE2E600BFC004002098050020C1
:1032B000C805002010B5FFF77BFE034B1B6813B158
:1032C000BDE81040184710BDC411002073B5254D4E
:1032D0000646D5F86C0115F040FD00283BD06FF094
:1032E000020105F1D40013F005FE012113F099FD50
:1032F00010EA010432D11C4B1E600A4605F5987095
:1033000015F000FF05F5AA7015F0A5FE174815F099
:10331000C3FF1749154800946FF007034FF49662F6
:1033200011F086FF1349114815F0E1FFD5F86C0143
:10333000114983681B689847044648B926B902B00A
:10334000BDE87040FFF734BE05F1C40011F06AFF1C
:10335000204602B070BD6FF01204F9E76FF07704F9
:10336000F6E700BFC0040020C4110020D00A0020EE
:1033700080270020B4B30100C92C0000F7B5144B1E
:1033800093F99B30002B05460C461DDA14B92046F4
:1033900003B0F0BD082C01AA4FF0000142F2180062
:1033A000264628BF0826FFF74BFD0028F0D1019FD5
:1033B000F96832460131284616F068F93846FFF7B9
:1033C00059F93544A41BE1E76FF08500E0E700BF41
:1033D000C00400202DE9F0435A4BB0F80180198851
:1033E00048F4704291424FF0000602BF1E80564BD7
:1033F0001E78C378012B08BF544B00F1040485B03C
:10340000054620460CBF93F86F70002713F096FC1A
:103410002146B0B102A813F086FCD5F81130CDF8E2
:103420000130B5F81530ADF805304FF00109EB78F3
:10343000012B1DD01321404613F0BEFE05B0BDE8A0
:10344000F083384613F059FF0346006802909A88CB
:103450009B796868ADF80C208DF80E30A288A379AE
:1034600095F804900090ADF804208DF80630DEE762
:1034700002A8FFF747FAEB78012B04460AD100F0C7
:1034800061FB6FF080010746103013F033FD3846C2
:1034900014F0A1F8002CCDD02346B5F8012023F874
:1034A000702B02989DF80E20BDF80C1020679A71C1
:1034B0009980B5F81730A4F88630B5F81930A4F81B
:1034C0008C30B5F81B30A4F88E30EB78E370002216
:1034D000012B627224D18DF80090BDF804209DF874
:1034E00006300098A4F87B2084F87D30C4F877007B
:1034F00000F028FB237A154AC3EBC3039918D3586D
:10350000C4F87E308B88A4F882308B7984F88430BC
:10351000D2E9381303F03F03194301D000F0B6FCA1
:103520000721204600F03CFF26B1667201212046AB
:1035300000F036FF204601F021F8204600F006FF9B
:103540007CE700BF1827002033270020C00400209C
:1035500000B5C3681A7889B032B13C2A32D109B0BB
:103560005DF804EB13F0D2BC8DF80020B3F8012015
:10357000ADF80120DA788DF80320B3F80B20ADF810
:103580001720B3F80D20ADF81920B3F80F20ADF8CF
:103590001B205A7C8DF81D20586801901A899B7A4F
:1035A0008DF80A30094BADF8082068461A689B88E8
:1035B000CDF80B20ADF80F30CDF81120ADF8153057
:1035C000FFF708FF09B05DF804FB00BF3FB2010040
:1035D00038B5032104460C3013F00BFBE368057883
:1035E000B0F80100197840F6354398420AD02246D7
:1035F000FFF72EFA35B1044811F01EFCBDE8384043
:10360000FFF79CBB38BD00BFF005002038B5042192
:1036100004460C3013F0EDFA4578017840882246D4
:10362000FFF716FA35B1044811F006FCBDE8384042
:10363000FFF784BB38BD00BFF005002070B54FF028
:10364000FF320D464FF0FF3300210646FFF714F915
:10365000044660B90A4A0B490B48132313F045F896
:1036600084F31188BFF36F8F0323184602DF022112
:1036700004F10C0013F096FA06704570204670BDF8
:10368000BDB301003AB30100FDB20100F8B50A4D27
:10369000EF7906460024E3B29F4202D86FF00100A2
:1036A00007E02946304613F020FE0735631C08B1B9
:1036B0002046F8BD1C46EEE7C004002070B5144E4D
:1036C00006223146044616F011F8D8B1062142F21E
:1036D0000500FFF76DFA0546B0B1062221460C3011
:1036E00013F066FA0022294642F20500FFF7A8FB14
:1036F00048B93346226843F86929A288B28001227A
:1037000083F86820002070BD6FF06800FBE700BF01
:103710002905002037B504460D4689B118492846C9
:1037200013F0E3FD60B9174A2968C4EBC404A31879
:103730001151AA889A80AA799A71002003B030BDED
:10374000684613F0C0FA0028F8D16846FFF79EFFDC
:103750000028F5DA0B4A00989DF80610C4EBC40463
:10376000A3181051BDF8040098809971002DE4D081
:1037700012592A609A88AA809B79AB71DDE700BF55
:1037800032B20100C004002070B5044611B16FF0E0
:10379000150070BD80B11C4913F0A7FD60B920462B
:1037A000FFF774FF002829DA2378012BEFD1A379E2
:1037B00003F0C003C02BEAD1144DEB79012B20D0CC
:1037C000BFF35B8FD5F8D430BFF35B8FDB0707D433
:1037D000002CDCD00C49204613F087FD0028D6D100
:1037E000EE792146731C3046EB71FFF793FF08B961
:1037F0003046CEE7EB79013BEB71CAE76FF077001B
:10380000C7E76FF00B00C4E732B20100C00400202C
:103810002DE9F3410446D8B101AA002141F2090083
:10382000FFF70EFB054698B9019E1249D6F80C80A9
:1038300008F101070622384615F058FF28B10E4955
:103840000622384615F052FF30B93046FEF712FF17
:10385000002002B0BDE8F081D8F80130C4F8013092
:10386000BB88A4F8053030462570FEF703FF012021
:10387000EFE700BF3FB2010039B2010007B568466B
:10388000FFF7C6FF044BD87118B169460020FFF757
:1038900041FF03B05DF804FBC0040020F0B5294DE2
:1038A000EE7989B0002E46D195F8C230DB0722D5DB
:1038B0006A4631464FF60940FFF7C2FAD8B9DDF83B
:1038C00000C0DCF80C406378012B1E4628BF01269F
:1038D00073B1A31C02AA123418685968174603C7AB
:1038E0000833A3423A46F7D1186838609B88BB80FA
:1038F0006046FEF7BFFEEE71002416260127EB7925
:10390000E0B2834202D8B3B1002012E008AB06FB5C
:103910000033694653F8182C33F8143CCDF80120D5
:10392000ADF805308DF80070FFF7F4FE0134002883
:10393000E5D009B0F0BD0021084609B0BDE8F0406F
:10394000FFF722BFC00400202DE9F0410D461746C5
:103950001C460646002856D0002B54D00A03037894
:1039600008D56D074FD413F0D5FC002849D10123A9
:1039700023700CE0E9072CD526480FB1AA0608D41D
:10398000C3EBC302825C012A12D002B9227000206C
:1039900037E090F8D820510638D5C3EBC302825CDB
:1039A000012A05D002B92270237843F00203DFE731
:1039B0004FF00108072111FB03810144304613F049
:1039C000A1FCF0B984F80080002FE0D0AB06DED572
:1039D000EAE76A0711D50F49C3EBC3028E5C012EDB
:1039E00008D1072212FB0363194413F08BFC40B982
:1039F0002670EBE7002EE9D1FAE713F08BFC0123E8
:103A00002370BDE8F0816FF01500FAE76FF08500D4
:103A1000F7E700BFC004002010B50A4CE3790BB1F2
:103A2000002010BDFFF72AFF0028FAD1E379002B10
:103A3000F6D1FFF733FF0028F3D1601CBDE810403A
:103A4000FFF73CBEC0040020F8B54568690506468E
:103A500035D4046914B115F0010330D0194F307812
:103A6000FB7983422BD9C0EBC000174907223844A9
:103A700015F03CFEA8B115F0010306D197F87020AF
:103A8000082A02D8B2689F2A19D915F0300F09D038
:103A9000ACB1EA060AD405F46035B5F5603018BF5C
:103AA0000120F8BDEB0601D4002CF4D1D6E90223A5
:103AB0009A4204D81F2A02D9B3F5804FEBD90020CF
:103AC000EFE700BFC004002032B2010008B504498E
:103AD0000722093015F00AFE003818BF012008BD82
:103AE00032B20100F8B5154B067883F86F600446D2
:103AF0000D46FFF7EBFF70B91149304600F0B6FEF6
:103B0000044610B96FF00B00F8BD052100F048FC29
:103B10002C600020F8E704F109073946304613F01D
:103B20008FFE40B92078394600F0A0FE04460028F8
:103B3000E8D00621EAE76FF01500E5E7C0040020B1
:103B40002BB2010000487047D80400202DE9F04F47
:103B5000D1F810908DB09A460023B9EB03060546C4
:103B60009048059218BF0126079313F0FDFB0C4601
:103B7000410740F10C812046FFF766FF28B96FF03E
:103B8000150B58460DB0BDE8F08F204613F0D9FB59
:103B900080460028F3D005F11007384613F0E4FB07
:103BA0000206C0F3C01300F1F580CDE90933CDF86A
:103BB0002B30A3686068ADF82030E368ADF82230A0
:103BC00013F0C3FB6FF480718DF82D00754813F06E
:103BD000D1FB754A23782B7082F86F3061680DF144
:103BE000250332462846FFF7AFFE83460028C8D19A
:103BF00005F10903B9F1000F18D021690868C5F86B
:103C000009008888988089799971204613F0AEFC64
:103C100063680646D8071BD49A0503D4169B0BB9D4
:103C2000022E56D102238DF8243023E05F4A11681A
:103C3000C5F809109188927999809A71204613F0FD
:103C400095FC6368D9070646E6D58DF8249011E007
:103C500013F0100F0CBF012304238DF824302369C7
:103C60001968CDF826109988ADF82A109B798DF83F
:103C70002C30D8460F2142F20600FEF799FF83460A
:103C8000002800F08A800F2208A90C3012F090FF63
:103C90000022594642F20600FFF7D2F800287FD1F1
:103CA000B9F1000F1BD06368DB0726D42846012139
:103CB00013F06CFC079D8346002860D0002D3FF474
:103CC00060AF2846002100F06BFB284600F03EFB69
:103CD00057E70323DDF858808DF82430CAE7179B97
:103CE0000093CDE90186169B05995246284613F0AC
:103CF000C6FB83460028D6D043E707A92846FFF72E
:103D0000F1FE83460028D1D010F10C0F7FF439AFBB
:103D1000B9F1000F7FF435AF636898073FF531AF15
:103D2000626882F00202C2F3400B0BF001020E2126
:103D3000384613F08DFB731E5A425A41082138460B
:103D400013F086FBB11E4A424A413846092113F05E
:103D50007FFB62680A2102F00102384613F078FB0B
:103D600042460B21384613F073FB62680D21C2F303
:103D70008002384613F06CFB4FF0000B01E715B1E1
:103D8000284600F0E3FAB9F1000FCED1C8E76FF092
:103D90000A0BF6E66FF0770BF3E66FF0680BF0E6D0
:103DA0008346EEE694050020C004002032B20100F4
:103DB00073B51546069A0C46CDE900322B460A46E5
:103DC00001461148FFF7C2FE21460646002340F295
:103DD00001109D4202D1304602B070BD0A88824275
:103DE00004D14A6812B11278D20702D401330831E3
:103DF000EFE70649064815F055FA4FF47022002304
:103E0000034811F0B1FAE6E7D8040020DD7501009F
:103E1000F004002010B5194813F0DDFB18486FF4CA
:103E2000804113F0A7FA164813F09EFA03461A06CB
:103E3000C0F3C01021D5124813F096FA430513D5EC
:103E40000E48FFF743FE0F490346087E93B90E491B
:103E5000052200F04FFD044630B10021417200F010
:103E60009FFA204600F072FABDE810400348002196
:103E700013F08CBB06222131EBE710BDD8040020E3
:103E8000E8040020C00400202BB2010073B53248C2
:103E9000314C13F069FA10F4804F5AD0204613F0D9
:103EA00063FA030655D4204613F05EFA460550D552
:103EB00001A9A4F11000FFF715FE002849D1A4F1D3
:103EC0001000FFF703FE0246204613F04DFAC0F340
:103ED0008031204613F048FA81F0010145054FEA90
:103EE00041011D4848BF41F0010113F03DFA800433
:103EF00048BF41F0040119480DF10303FFF724FD09
:103F0000054630BB1548012113F040FB019E28B93E
:103F1000304602B0BDE8704000F018BA294630467D
:103F200000F03EFA6FF480410B4813F023FA054687
:103F3000304600F00BFA6B040BD5BFF35B8F54E8EF
:103F4000003F43F4804344E80032002AF7D1BFF336
:103F50005B8F02B070BD00BFE8040020D8040020D1
:103F600070B50C4B1C68054644B154F8143C143C25
:103F700013B1697A284698476469F5E7064C074EFD
:103F8000B44200D370BD236813B1697A28469847BC
:103F90001834F5E7FC110020649B0100649B0100CC
:103FA00010B50446FEF7C6FA044901EB001120469D
:103FB00012F005FFBDE81040FEF7C0BEC81100209A
:103FC00070B5D1E9015600220446C1E90122064834
:103FD00015F07FF83DB1314620462B466FF06D025B
:103FE000BDE87040184770BD8009002070B5002200
:103FF00005460E46094800230021FEF7BDFA044697
:1040000058B1FEF797FA064B324603EB00132946E8
:104010002046BDE8704012F0ADBE70BD1C0A002005
:10402000C811002013B5837A072B044625D1BFF3AE
:104030005B8F043050E8003F43F4806240E8002189
:104040000029F7D1BFF35B8F590516D413F0D8FAC6
:10405000C2030CD50A4B93F8D930DB070DD50021EC
:10406000022300911A46204613F0E5F805E02046A9
:1040700013F0C7F8A37A072BECD002B010BD00BF35
:10408000C004002070B505460F480022002310F040
:104090000DFFB8B90D4B1C6834B154F80C3C143CFE
:1040A00003B198476469F7E7094C0A4EB44204D358
:1040B0002846BDE8704011F0B5B8A36803B1984731
:1040C0001834F3E770BD00BF68090020FC11002020
:1040D000649B0100649B01002DE9F843DFF85480E4
:1040E000044620270025EFF3118387F31288BFF3DE
:1040F0006F8FE16929B983F31188BFF36F8FBDE832
:10410000F883206A0A68E261814208BF226283F371
:104110001188BFF36F8FD1E901694046C1E90155AC
:1041200014F0D7FF1EB1002249462046B047FEF7E3
:1041300005FED8E7800900200448B0F80431002BC0
:1041400000F5847008BF0020704700BFC004002045
:1041500030B5044615F046FB0D460C490C4A09588B
:1041600091428BB005D120460BB0BDE83040FFF73F
:10417000B3BF24342146104615F063F81DB16946DB
:10418000204615F06EF80BB030BD00BF08000000EF
:104190004810002038B5002204468A4202D100248B
:1041A000204638BD04F1C8030120BFF35B8F53E8FC
:1041B000005F002D04D143E8000CBCF1000FF6D1E4
:1041C000BFF35B8F02D0D0340244E6E7002CE6D088
:1041D000C8220021204615F081FA04F1400004496C
:1041E00015F060F8034904F1240015F00EF8D7E744
:1041F000A14900003B76010038B50122044600F1D8
:10420000BC03BFF35B8F53E8005F43E80021002944
:10421000F9D1BFF35B8F7DB913F095FA11F04CFA29
:10422000094BC4F8B850D3F8281104F1B80239B9D1
:10423000C3E9492211F054FABDE83840FEF77EBDCB
:104240000A60C3F82821F5E7C004002070B53C4B94
:104250005A8B32B13B4DD5F8244134B90024204665
:1042600070BD1B68002BF5D1F8E754F8B83903B1DD
:10427000B83B3549002601E01C461346B5F8042139
:10428000002A5AD0D5F810214AB904F1B806002BFB
:10429000E4D0D3F8B820002AEED0B83AECE70A68A8
:1042A000002AF2D0D4F8A420002AEED0D4F8A82016
:1042B000002AEAD0D4F8AC20002AE6D0A37A072B53
:1042C0000DD12046904750B104F1C00013F098F989
:1042D000022804DC2046BDE8704013F034BAD4F85C
:1042E000B83004F1B80206BBD5F82811C5F824315E
:1042F0008A4201D1C5F828310022C4F8B82004F15F
:10430000BC03BFF35B8F53E8001F43E80020002885
:10431000F9D1BFF35B8F2046D4F8AC309847002822
:104320009DD02046FFF768FF99E73360D5F8283124
:104330009A4208BFC5F82861DEE79368FFDE00BF38
:104340001C0A0020C00400208009002037B5C830B6
:1043500010F8C65C10F8C54CBFF35B8F50E8003F07
:104360005A1E40E800210029F8D1BFF35B8F01A855
:10437000019313F045F901280BD1074810F05CFDBB
:10438000064810F04FFF012D03D1012C01D1FFF79A
:104390007DFD03B030BD00BF6809002094060020F9
:1043A00070B5857A8D4204467ED0817225B98378B6
:1043B000082B01D013F0C7F9A37A012B09D13B4D8B
:1043C00005F58476616900295CD1BDE87040FEF78F
:1043D000B5BC072B09D0002B66D1A378042B20D1C4
:1043E0002046BDE87040FFF7B1BFA378042B5BD037
:1043F0002F48002111F0C8FC0023C4E90D33E378F5
:10440000012B51D1A378012B04BF032384F89430EE
:1044100004F140004FF42032BDE87040002310F05A
:104420006FBF082D40D801A353F825F0A944000020
:104430005144000077440000E1430000E1430000E4
:10444000E143000077440000A9440000A9440000B3
:1044500004F14005284614F031FF20460121FFF702
:1044600077FE204613F007F928460022BDE8704089
:10447000002310F079BF637A002BB1D02046FFF7FC
:104480006FFDADE7A2690B686361914208BFA3614C
:104490002046FFF795FDB5F80431002B14BF3046D8
:1044A000002010F0C9FC8DE770BD00BFC0040020E3
:1044B000A406002010B502460C460748012113F05F
:1044C0005DF9034610B90023184610BD82781442E6
:1044D000FAD1FFF73BFFF6E7700B0020F8B507466F
:1044E00009480D46164613F02EF9044650B183785C
:1044F0001F4203D1BDE8F840FFF728BF3146A84767
:104500002046F7E7F8BD00BF700B002002490022EB
:104510000120FFF7E3BF00BF25400000034BC01A96
:10452000034B00115843C0B2704700BF700B00200E
:10453000C54EECC470B51C46144305460E4608D063
:1045400015F050F90A4908580A49884204BF002268
:1045500013460949002D14BF2846084612F0B6FA42
:10456000044618B1711D0C3012F011FB204670BDCD
:1045700008000000481000209809002010B50446EB
:10458000054810F04FFE204600F0B8FA2046BDE87E
:104590001040FFF7E5BC00BF840600202DE9F04F76
:1045A00085B0002301930393FFF750FE044668B1E2
:1045B000827AD0F8A430072A17D002AA4FF0FF3130
:1045C0009847014628B92046FFF7C0FE05B0BDE870
:1045D000F08F039B019A204613F018F8D4F8A4300A
:1045E00002AA4FF0FF312046EAE7DFF8689102AAFD
:1045F000B9F80411984706460028E4D0B9F8042118
:10460000029B9A4206D30146D4F8A85003AB01AAF4
:104610002046A847338A039FDDE9018B002B00F079
:104620008E80304612F0E1FB8246002840F0878001
:10463000B9F804314848002B08BF002000220023AD
:1046400010F034FC00287AD144480022002310F0F6
:10465000C1FB0546002872D0C0E90187B9F8047192
:10466000338ABB4598BF1FFA8BF7BB4242D930460D
:1046700012F05BFA3946FFF7B9FCB9F8043194F847
:10468000C4809B458CBF4FF0010A08F1020884F8F2
:10469000C4A0074698BF5FFA88F804F1C00ABFF3C8
:1046A0005B8F5AE8003F01334AE80032002AF8D114
:1046B000BFF35B8F00232B60A369F3B9C4E90555F1
:1046C000A378012B1CD1042107F10C0012F081FA10
:1046D000238808F0FD0843EA083303803B8A043B43
:1046E000438004233B763846FEF79EFA40B9FEF736
:1046F00025FB68E739463046BDE71D60A561DFE769
:10470000BFF35B8F5AE8003F013B4AE80032002AC2
:10471000F8D1BFF35B8F294604F1140012F090FF2B
:104720003846FDF7A7FF20462946FFF749FCB9F8B0
:1047300004310948002B08BF002010F07DFB3146F2
:104740002046039B019A12F061FF1321204613F0CB
:1047500037F838E7C0040020C80500208009002091
:10476000F8B5031D0446184612F04AFF820419D515
:10477000B4F88620B4F88810914213D8B4F88A109F
:1047800091420FD3D4E9231291420BD1BFF35B8F37
:1047900053E8001F21F4005143E80012002AF7D12A
:1047A000BFF35B8F104B1D686DB155F8046C143D61
:1047B0003EB1B4F88E30B4F88C20B4F886102046A0
:1047C000B0476D69F0E7094D094FBD4200D3F8BD10
:1047D0002E693EB1B4F88E30B4F88C20B4F886104F
:1047E0002046B0471835F0E7FC110020649B01001B
:1047F000649B01002DE9F041074608460D4612F082
:1048000048FC064618B900263046BDE8F081144B36
:104810001C6884B154F8083C143C0BB96469F8E78F
:104820002946384698470028EDD0284612F031FC3A
:104830000028F3D1E7E70B4CDFF82C804445E3D2A6
:10484000E3680BB91834F9E7294638469847002839
:10485000D9D0284612F01DFC0028F3D1D3E700BFC1
:10486000FC110020649B0100649B010038B50546E3
:104870000C460E480121FFF78DFCB0B1057223688C
:104880000367A388A0F87430A37980F876300123F9
:104890008370074BC0F8A430064BC0F8A830064B15
:1048A000C0F8AC30054BC0F8883038BD700B002024
:1048B000D54B0000ED750100E175010018002800DE
:1048C00070B505460A480E4612F03DFF044620B179
:1048D0008378012B04D0FFF739FD0024204670BDFA
:1048E0003246294612F08CFF0028F7D12046F2E725
:1048F000700B0020F8B505460E480E46174612F01C
:1049000022FF044620B18378012B03D0FFF71EFD60
:1049100000240DE036B13246294612F071FF08B985
:104920002046F3E7A37ABB42FAD1237AAB42F7D110
:104930002046F8BD700B002038B5044608460D46E9
:1049400012F0A7FB38B3154B93F8D830990707D46A
:10495000E37873B129462046BDE8384000F0A0B99D
:1049600094F895309A07F3D5201D12F049FE4304C0
:10497000EED42946204612F07BFF58B92B88A4F8C4
:1049800088306B88A4F88A30AB88A4F89030EB8824
:10499000A4F8923038BD6FF01500FBE7C00400208A
:1049A000F7B510F8363C0446A0F140060BBB304684
:1049B00013F010F8354B1D684DB155F8103C143DFF
:1049C0001BB114F8371C304698476D69F4E7304D39
:1049D000304FBD4205D3304603B0BDE8F040FFF78D
:1049E000B5BC6B681BB114F8371C304698471835B6
:1049F000EFE710F83E3C012B30D1BFF35B8FA0F105
:104A00003C0555E8003F23F4005245E80021002909
:104A1000F7D1BFF35B8F9B0422D5A36C009369464B
:104A2000236D01933046FFF787FF58B9BFF35B8FC3
:104A300055E8003F23F4805345E80032002AF7D1BF
:104A4000BFF35B8FBFF35B8F55E8003F43F4006318
:104A500045E80032002AF7D1BFF35B8F03B0F0BD09
:104A60000D4A106851686B4603C369463046FFF72C
:104A700063FF0028E6D1BFF35B8F55E8003F43F4A6
:104A8000805345E80032002ADAD0F6E7FC11002016
:104A9000649B0100649B0100AC9B010010B50C48B5
:104AA00014F0D9FA0B490A4814F013FB0A490848D4
:104AB00014F00FFB0949064814F00BFB13F0B7FC88
:104AC00013F06DFF044608B913F047F8204610BDF7
:104AD00080090020D8110020E4110020F0110020EE
:104AE000044B186818B9044A5A600B6070476FF09D
:104AF0000B00704704120020549D0100F7B5274DAC
:104B0000274F04460026BD4201D303B0F0BD6B68B9
:104B100001A92046984700283BDB019B2A889A82FE
:104B20009A8403F11002A868BFF35B8F52E8001F5C
:104B300042E8006CBCF1000FF8D1BFF35B8FC3E912
:104B400013669E649E60A16B03F1080219BBC4E961
:104B50000D221C60D86003F1300014F07CFA01983B
:104B600043681B6803B19847019BBFF35B8F103309
:104B700053E8001F41F0010143E80012002AF7D179
:104B8000BFF35B8F01984368DB6913B100F110013B
:104B900098470C35B7E70A60A263DAE7409B01004B
:104BA000649B010030B5044652EA030008D014F0BB
:104BB00019FE064D2D580648854204BF00221346B3
:104BC00020460431BDE83040FFF7B4BC08000000C7
:104BD000481000202DE9F843D0F8B0400E4690462A
:104BE0004CB1483C236B63B104F13009484614F0E2
:104BF00085FA054650B9FEF7A1F800252846BDE81C
:104C0000F883204612F07EFEA46CE9E712F0EDF87E
:104C10000028F2D1236D9BB9A38C2F8A403B9BB215
:104C20003F2B03D8238D9F4228BF1F46042105F147
:104C30000C0011F0CEFF0780A38C4380043727655A
:104C4000236D2A8A9E420ED3934215D0A38C403BFB
:104C50009BB23F2B1ED9204612F054FE236B13B19A
:104C6000204612F02FFE236DC8F800309E4234BF5C
:104C70009E1B00262665C1E700220023484610F04F
:104C8000A9F8A38CA3F140023F2AE4D8034AAA6101
:104C9000EB61E0E700221346F9E700BF817A0100EB
:104CA00070B5124B0C4619780131C9B2012938BFD1
:104CB0000121054608221220197012F0A3FE0646B3
:104CC00088B108210C3011F06DFF228802806288C3
:104CD0004280A2888280E288C28031462846BDE8B0
:104CE000704012F0DABE6FF00B0070BD3427002068
:104CF00023281FD81A2804D8431E182B0ED90620A3
:104D00007047A0F11B03082B1ED8DFE803F0051D38
:104D10001B231D19251D0500032070470F4A012381
:104D200083401A40C2B90E4A1A40002A14BF01201B
:104D30000620704700F07F03522B05D100207047FA
:104D4000012070470520704710F0400F0CBF06206F
:104D5000002070470420704702207047AAAA8A02E8
:104D60005455450170B50E46438D418B8B4202F17F
:104D7000010228BF0B469A4205461ED83046FFF76F
:104D8000B7FF022810D004280ED014F02BFD144BCE
:104D90001958144B994213D0134B1B685A1A18BF59
:104DA0004FF0FF32134602E04FF4702200230F4809
:104DB0000021FFF7F7FE044620B90024204670BD0D
:104DC0000022EFE7FDF7B6FB094B182202FB003388
:104DD000012104F10C009D6011F0E4FE0670EDE786
:104DE0000800000048100020A0120020C409002084
:104DF00058120020011F014814F060B8300900204B
:104E000010B500F154030446BFF35B8F53E8001F55
:104E100041F0010143E80012002AF7D1BFF35B8F94
:104E2000201F12F0FAFF04F17400044914F03AFA5A
:104E30002068BDE8104001F043BA00BF678401005C
:104E400070B503788AB004460E4607AD032B20D810
:104E5000DFE803F002191B1D11492846FBF774F91E
:104E6000059563780493A3780393E37802932379F9
:104E7000019363790093A3790A4A1E21304610F00A
:104E8000D1FF0AB070BD0849E7E70849E5E70849DE
:104E9000E3E7084A0A21284610F0C4FFE0E700BF14
:104EA00056B20100FAB30100C4B001006FB20100B4
:104EB00085B20100F3B301002DE9FF4105460E461E
:104EC0004FF000084FF42053006817688DF80880F1
:104ED00002A91446ADF80A3011F0A7FEA0B142F6BF
:104EE000010328688DF80C8003A9ADF80E3011F08D
:104EF0009CFE48B123691BB15A88B24200D25E8041
:104F0000012004B0BDE8F0816168286811F08DFED1
:104F100010B100232361F3E7E368A0681A786AB14F
:104F2000B7F82AC0798B038A8C4594BFC3EB0C0376
:104F3000C3EB0103934201DA0020E2E704210C30C5
:104F400011F030FE2061068023695E80074B0093DC
:104F50000194A26800232946384612F0A1FF0028D8
:104F6000EADB2069003818BF0120CAE7817E010012
:104F7000F7B5002304460E462B48002269460FF081
:104F8000FBFE0546D0B914F02DFC284B009F1A58A3
:104F9000274B29461A60381D282214F09FFB3C60DD
:104FA000009C24480195C4E90155C4E90955002233
:104FB000002301A90FF0E0FE054620B16FF00B05BC
:104FC000284603B0F0BD019B0146B022184614F0FC
:104FD00085FB194A8260603014F03DF8019BBFF3F5
:104FE0005B8F583353E8002F43E800510029F9D173
:104FF000BFF35B8F019B1C60636A019F1BB904F1C7
:105000000C0014F028F8626AC7F8A820A26A07F119
:10501000A803636202B9A362019B17225A855A83CF
:1050200004333360CCE700BF1409002008000000FF
:10503000A012002030090020B40600202DE9F7431B
:10504000176805468846006851687E68144611F066
:10505000ECFD8146002842D130469522294613F0C6
:105060008FFB0646207540B1E3681B780BB184F8CE
:105070001490002003B0BDE8F083A06811F059FD42
:1050800002210C3011F08EFD164B2061A0F800803B
:1050900000930194A26833462946384612F000FF77
:1050A000002807DA10F1FF0F26BF4042C0B20E20E1
:1050B0002075DEE72369002BDBD0A06812F058FDD5
:1050C0007B8D7A8B9A4294BFC0EB0200C0EB030049
:1050D000E3681B78984294BF00200120CAE70120B2
:1050E000C8E700BF817B01002DE9F74F064608465F
:1050F0000C46FDF71FFADFF898801823434308EBAE
:1051000003020546D2F808A0E068BFF35B8FB16DDB
:10511000BFF35B8FC90738D5E168097811710022A8
:1051200048F803200378D22B0ED133682146186843
:1051300013F032FC40B101902046FDF79BFA019B31
:10514000184603B0BDE8F08F04F10C0011F061FDCA
:1051500018235D4308EB050900231A46074621463C
:10516000301DB4F810B0C9F8086012F061FC0346B5
:105170000028E5D06269A4F810B012FA87F7E7605A
:1051800048F80500C9F808A0DAE76FF01503D7E77B
:10519000581200202DE9F14F0546FDF7CBF93349B0
:1051A000182202FB00F3C81851F803A00779B0F8E1
:1051B0000680D0F810900021D0E9024614F08EFA53
:1051C000A87AFDF7AFF96969834651B16B7AD807C0
:1051D00005D4DBF824301B6828469B6898470023D9
:1051E0006B612946584613F07FFF002F31D084B3FE
:1051F000236873B31B6863B3BAF1000F29D1201D74
:1052000013F014F83846FFF773FD052821D8DFE8BE
:1052100000F0160320162003BFF35B8FA36DBFF3CE
:105220005B8FDA0715D5E36D9BB14FF47022002335
:1052300004F1780001B0BDE8F04F10F095B8236894
:105240001D68BFF35B8FA36DBFF35B8FDB0700D5DA
:1052500056B901B0BDE8F08F49462846B047013441
:10526000A3B29845F8D8F4E70024F9E758120020D3
:10527000F8B50B8A076804460D46002B39D001218A
:1052800005F10C0011F0B5FCBB7A072B064630D1B6
:1052900054F8043C6BB301781748043C002310F821
:1052A00033708F4200EBC30208D1298A5378977874
:1052B000994213D2012F1CD1042317E001330E2B86
:1052C000EDD10846FFF714FD98B1052811D081B142
:1052D00006230022204612F0EDFF0AE0536829461B
:1052E00020469847012F034603D110B13178002999
:1052F000EFD10020F8BD00BF7C9D0100F0B51E4637
:1053000003680D46003987B0044618BF01211868AC
:10531000174613F01AFB40B904F1580012F082FE50
:10532000002844D0002007B0F0BD002E41D0182244
:105330000021684614F0D2F947BB23681E4A1B6857
:1053400000930023ADF812300C9B0393BDF834306A
:10535000ADF8103001238DF8143031466B463046DD
:105360008DF8085012F04FFC9DF81430C3B1002F97
:10537000D8D00198FDF77EF99DF81430002DD1D0DA
:1053800032462946204612F095FFCBE700223946E7
:105390002046FFF7E7FC01900028CED11120C2E79C
:1053A00001990029BED0204612F076FFBAE71220FC
:1053B000B9E70120B7E700BFA57B0100F8B54FF4BE
:1053C0007022074600230D480E4611F07FFB04466D
:1053D00090B100F10C050921284611F0D8FB2046B8
:1053E000FDF7A8F8064B182202FB003301212846DE
:1053F0009F6011F0D7FB06702046F8BDC40900205D
:10540000581200202DE9F0410E8A043EF6B2022E19
:1054100004468CB0084601D0102E64D104210C3013
:1054200011F0E7FB0DF1080805884788011D324699
:10543000404611F028FC002857D09DB3002687B3C2
:10544000BD422FD84FF4205301A940468DF8046087
:10545000ADF8063011F0E9FB40BB1422002107A88B
:1054600014F03CF911212046FFF7A8FF099000280D
:1054700037D001210C30CDE9074811F093FB002310
:105480000A901B4A037039460B93284607AB12F06B
:10549000BAFB0A9B1B78FBB90998FDF7EBF80A23C6
:1054A00001E03D4601232A4610210EE042F60103A9
:1054B00007A940468DF81C60ADF81E3011F0B5FB11
:1054C0000028CAD010232A461946204612F0F2FEC0
:1054D00000200CB0BDE8F0810999204612F0DCFEF6
:1054E000F6E71120F5E70420F3E70E20F1E700BF0F
:1054F000B94E00002DE9F043036885B004460D461F
:105500001868012113F021FA40B904F1580012F093
:1055100089FDB0BB122005B0BDE8F0831022002148
:10552000684614F0DBF821212046FFF747FF029080
:1055300048B3DFF85890009405F10C074FF00108CC
:105540002B8A012B04D80299204612F0A5FE18E000
:10555000384611F056FB6B464A46014606468DF822
:105560000C8012F050FB9DF80C30002BE8D0029814
:10557000FDF780F89DF80C3032462021204612F0CD
:1055800099FE0020C7E71120C5E700BF8980010010
:105590002DE9F043036885B004460D4618680121E3
:1055A00013F0D3F940B904F1580012F03BFDB0BB41
:1055B000122005B0BDE8F08310220021684614F0E7
:1055C0008DF80F212046FFF7F9FE029048B3DFF86F
:1055D0005890009405F10C074FF001082B8A012B1D
:1055E00004D80299204612F057FE18E0384611F010
:1055F00008FB6B464A46014606468DF80C8012F0C1
:1056000002FB9DF80C30002BE8D00298FDF732F831
:105610009DF80C3032460E21204612F04BFE002041
:10562000C7E71120C5E700BF43800100F0B51D4664
:10563000036885B004460E4618680121174613F02A
:1056400084F938B904F1580012F0ECFC48BB122080
:1056500005B0F0BD65B310220021684614F03EF895
:1056600039462046FFF7AAFE029018B3BDF828304D
:10567000ADF8043001238DF80C300F4A00946B46CE
:105680002946284612F0BFFA9DF80C305BB102980B
:10569000FCF7F0FF9DF80C302A463146204612F008
:1056A00009FE0020D4E70299204612F0F5FDF8E744
:1056B0000120CDE71120CBE7438001002DE9F04127
:1056C0000E8A043EF6B2022E04468CB0084601D083
:1056D000102E76D104210C3011F08BFA0DF1040854
:1056E00005884788011D3246404611F0CCFA002853
:1056F00069D085B377B3BD422DD86068012113F01E
:1057000024F9064678BB8DF8000042F6020369468C
:105710004046ADF8023011F088FA20B342F6030398
:1057200006A940468DF81860ADF81A3011F07DFAE0
:10573000C8B1012D03D14FF6FF739F4213D004F17E
:10574000580012F06FFC002814BF002012200CB08B
:10575000BDE8F0813D4601232A460821204612F08B
:10576000A9FD0020F3E7182200210DEB020013F041
:10577000B5FF09212046FFF721FE0890F8B101216D
:105780000C30CDE9064811F00DFA002309900370A2
:105790000A238DF82C300D4A06AB3946284612F004
:1057A00032FA9DF82C302BB10898FCF763FF9DF876
:1057B0002C30D1E70899204612F06EFDD1E7112078
:1057C000C5E70420C3E70E20C1E700BF3D5000003D
:1057D0002DE9F0430F4687B00446062107F10C007F
:1057E00011F007FA0588B0F802808288D7F80C908B
:1057F000C5B10023B8F1000F13D0A84512D38DF81E
:1058000000308DF8043001A94FF420536846ADF8FC
:105810000220ADF8063011F008FA064660B10A23FE
:1058200001E0454601232A460621204612F042FDAA
:10583000002007B0BDE8F0830146142201A83F7C98
:1058400013F04CFF07212046FFF7B8FD0290D8B1B6
:105850000A238DF815300D4A019401AB41462846C4
:10586000CDE903698DF8147012F0CDF99DF815306B
:105870002BB10298FCF7FEFE9DF81530D3E7029994
:10588000204612F009FDD3E71120D2E71D7C01006C
:105890007FB5CB681D885E88044685B176B1AE427F
:1058A0000DD310220021684613F018FF0521204671
:1058B000FFF784FD019058B9112007E03546012318
:1058C0002A460421204612F0F5FC002004B070BDE9
:1058D0006B46094A00943146284612F094F9029B1F
:1058E00023B90198FCF7C6FE0A23E9E7019920468F
:1058F00012F0D2FCE9E700BF637D010013B50B464F
:10590000002101910E49024613F06CFF0C680D490D
:1059100009580D488C4208BF002201A908BF134650
:105920000FF02AFA014640B9019B1022184613F0E5
:10593000D5FE0346184602B010BD0023FAE700BFAB
:10594000A0120020080000004C09002010B50446F9
:10595000806818B1FCF78EFE0023A3602146024840
:10596000BDE8104013F0AABA4C0900202DE9F34716
:10597000044678300E4617461D4613F09FFCE06D36
:1059800030B9204612F05AFD002002B0BDE8F08781
:10599000124B98424FF0000805D12068C4F85C8093
:1059A00012F0FCFBF0E7D0F80490C0F80480E06D42
:1059B000D0F80CA0FFF7CAFF2068C4F85C8012F092
:1059C000EDFBB9F1000FDFD02068CDF800A0006832
:1059D0003B4632462946C847D6E700BFA4120020FE
:1059E000F7B550F8044C0546002C59D000F1A4013D
:1059F00004F1240012F0FBFA2E1F05F15C070022CF
:105A0000002338460FF0E6F9024678BBAB6D2BB1A8
:105A100001466FF067033046FFF7A8FF002345F803
:105A2000043C05F15403BFF35B8F53E8001F21F0E2
:105A3000010143E80012002AF7D1BFF35B8F636ACC
:105A400073BB04F10C060022002330460FF0C2F9AC
:105A500078B9666886B913482660214613F02EFA95
:105A6000286803B0BDE8F04000F04EBCFCF702FE31
:105A7000C5E7FCF7FFFDE6E7A2683368636096427E
:105A800008BFA36077683FB1F368009300232068E4
:105A90001A466FF06701B8473046FFF757FFD8E75F
:105AA00003B0F0BD14090020F8B51D460F46164698
:105AB000FCF740FD044C182303FB0040C0E90376CB
:105AC0000123C3800575F8BD5812002010B5074C9E
:105AD0002378834208D10722601C13F007FE0028B8
