:1000000000840020B1800000057702009D80000080
:100010009D8000009D8000009D8000000000000089
:1000200000000000000000000000000089810000C6
:100030009D80000000000000258100009D800000E0
:10004000518300006198010051830000518300003A
:100050005183000051830000518300005183000050
:100060005183000051830000518300005183000040
:100070005183000051830000518300005183000030
:100080005183000051830000518300005183000020
:100090005183000051830000518300005183000010
:1000A0005183000051830000518300005183000000
:1000B00051830000518300005183000051830000F0
:1000C00051830000518300005183000051830000E0
:1000D00051830000518300005183000051830000D0
:1000E00051830000518300005183000051830000C0
:1000F00051830000518300005183000051830000B0
:100100007BB972B90029BEBF00204FF0004106E064
:1001100008BF00281CBF6FF000414FF0FF3000F017
:1001200057B8ADF1080C6DE904CE002909DB002BAE
:100130001ADB00F07CF8DDF804E0DDE9022304B00E
:100140007047404261EB4101002B1BDB00F06FF870
:10015000DDF804E0DDE9022304B0404261EB410137
:10016000524263EB43037047524263EB430300F098
:100170005EF8DDF804E0DDE9022304B0404261EB03
:1001800041017047524263EB430300F050F8DDF841
:1001900004E0DDE9022304B0524263EB43037047FD
:1001A00053B94AB9002908BF00281CBF4FF0FF31DE
:1001B0004FF0FF3000F00CB8ADF1080C6DE904CE43
:1001C00000F035F8DDF804E0DDE9022304B0704703
:1001D000704700BF10F8012B11F8013B012A28BF1E
:1001E0009A42F7D0D01A7047034611F8012B03F852
:1001F000012B002AF9D17047034613F8012B002A7E
:10020000FBD1181A01387047430803F05533C01A60
:1002100000F03333800800F03330184400EB101046
:100220004FF0013300F00F305843000E70472DE9B6
:10023000F04786468C460846089E15467446194681
:10024000002B40F0C2808542B2FA82F245D94AB111
:10025000C2F1200300FA02FC2EFA03F3954043EAB0
:100260000C0C94404FEA154EA8B2BCFBFEF8230CD0
:100270000EFB18CC08FB00F943EA0C43994528D93A
:10028000EB1808F1FF3704D2994502D9A8F102070B
:100290002B44A3EB0903A4B2B3FBFEFC0EFB1C33FF
:1002A0000CFB00F044EA0344A04214D92C190CF1D1
:1002B000FF3304D2A04202D9ACF102032C44241A29
:1002C00043EA07401EB1D440002334607360BDE8A8
:1002D000F0874746DDE76346F1E792BB431B012108
:1002E0004FEA154EAFB2B3FBFEFC200C0EFB1C33E5
:1002F0000CFB07F840EA0343984562D9EB180CF170
:10030000FF3004D2984502D9ACF102002B44A3EB94
:100310000803A4B2B3FBFEFC0EFB1C330CFB07F777
:1003200044EA0344A7424ED92C190CF1FF3304D2FE
:10033000A74202D9ACF102032C44E41B43EA00407B
:10034000C0E7C2F1200320FA03F1954090402EFA55
:1003500003F303434FEA154EAFB2B1FBFEFC0EFBB5
:100360001C10190C0CFB07F841EA0041884504FAFF
:1003700002F422D969180CF1FF3004D2884502D961
:10038000ACF102002944A1EB08019BB2B1FBFEFCD9
:100390000EFB1C110CFB07F743EA01439F420ED9E9
:1003A000EB180CF1FF3104D29F4202D9ACF10201EB
:1003B0002B44DB1B41EA004192E76046E3E76146DC
:1003C000F7E76046A3E76346B7E7834206D916B965
:1003D000002108467BE7C6E900E0F9E7B3FA83F7B6
:1003E0008FB9834201D3724508D8BEEB020460EB9B
:1003F000030301209C461EB9002168E73846FAE74E
:10040000C6E9004CF8E7C7F1200CBB4022FA0CF417
:100410001C432EFA0CF120FA0CF3B84001434FEACA
:1004200014490EFA07F5B3FBF9F81FFA84FE09FB2D
:1004300018300B0C08FB0EFA43EA00439A4502FA07
:1004400007F240D9E31808F1FF3004D29A4502D9E7
:10045000A8F102002344A3EB0A0389B2B3FBF9F825
:1004600009FB183308FB0EFE41EA03418E452CD9E7
:10047000611808F1FF3304D28E4502D9A8F10203B6
:10048000214443EA0040A0FB0298A1EB0E01414544
:10049000CE46434602D306D14D4504D2B9EB020EF7
:1004A00068EB04030138002EA6D0B5EB0E0261EB19
:1004B000030101FA0CFC22FA07F34CEA0303F940AA
:1004C000C6E9003198E74046C5E74346D9E7000052
:1004D0002DE9F04F054687B00E46836804AA5B6895
:1004E00000219847002831DBDDE9044B1C4BDFF885
:1004F0007490A4FB031203FB0B28039116A3D3E90A
:10050000002308464146FFF74BFE039B4FF0FF3A9E
:100510009A4579EB0803074618D3A6FB044306FB6C
:100520000B3631460CA3D3E900232046FFF738FEF3
:10053000A24579EB0606034608D38742AA6805D38D
:1005400000210091146828463A46A04707B0BDE84C
:10055000F08F00BFAFF3008000CA9A3B000000009C
:10056000002D3101FFC99A3B2DE9F047064688B0BE
:100570000F4690462BF023F84FF47A73A0FB034507
:1005800003FB0155E40B012F44EA45444FEAD535FE
:1005900007D1294922462B46304626F049F800204B
:1005A00012E0D8F8047025483946FFF713FE70B101
:1005B00023483946FFF70EFE48B1304621493A46F6
:1005C00026F052F86FF0040008B0BDE8F08720462E
:1005D000294617A3D3E90023FFF792FD05460C46F1
:1005E00010461946184A0023FFF78AFD80460F4639
:1005F000104619464EF660220023FFF781FD824621
:100600008946104619464FF47A720023FFF778FDA9
:10061000CDE902A9CDE90623CDE90401CDE90087A2
:100620000A492A462346304626F002F8B7E700BFBB
:10063000005C260500000000A4FC0200B5FC0200DE
:10064000B8FC0200C1FC020080EE3600D9FC0200BA
:100650002DE9F843D0E90738856903EB08042F3406
:10066000A5420F46164619D8DFF86C80A3FB080197
:1006700017A3D3E90023FFF793FD0346601BA0FBFC
:10068000080123F07F4412A3D3E90023FFF788FD7C
:1006900020F07F403C603060BDE8F883DFF83890A0
:1006A0000BA3D3E90023A5FB0901FFF779FD20F097
:1006B0007F440A480A2106A3D3E90023E8FB090185
:1006C000FFF76EFD20F07F403C603060BDE8F883AE
:1006D0008D49FD1A0700000000CA9A3B00166BF115
:1006E000002800F037812DE9F04FC54C94F86A30AE
:1006F000DA078DB000F1688194F8292094F835303C
:1007000004EB820204EB8303D66A9F6B0EB335467B
:1007100015F8020BC0F3801010F0DCFA0368C6F87D
:1007200002308388AB8033785B0606D506212846E5
:100730000EF02EFE002800F049813D4615F8020B10
:10074000C0F3801010F0C6FA0368C7F8023083883F
:10075000AB80337813F00E0F40F08E80236A1BB10C
:100760000C200DB0BDE8F08F11F05AF98146002839
:1007700000F0398111F060F98246002800F03081E4
:1007800014F0D8F80546002800F02F81806F4FF64E
:10079000FF732B8605F11C0B002800F01D8105F16D
:1007A0006C0205F168010EF0FFFDB5F8643023F42A
:1007B000EF6323F0070343F48C7343F00103A5F8C0
:1007C000643095F8433003F03F0363F07F0385F80E
:1007D000433095F87E3023F0070385F87E3095F896
:1007E000483023F00F034FF0000885F848304FF4ED
:1007F000C023C5F878312846C5E91588C5F8788042
:10080000A5F87C8085F84580A5F83680C5F83A8043
:10081000C5F85C80A5F87E81A5F8748115F0DEFE30
:1008200085F84081C5F8449114F0EAFA95F88431CE
:1008300060F3020385F8843114F0E8FA95F8843106
:1008400060F3C50385F8843195F8703168F341038E
:1008500085F8703105F1C40015F0B2FCC4E9189AAE
:10086000C4F820B0C5E9058885F80080ED6119F06D
:1008700035FE002840F0AC8094F824300121C3F309
:1008800042030DF12B008DF82B300EF029FF0246AC
:10089000002861D07978304613F05EFA3123594947
:1008A000A360594BB4F86870A0FB01010025C01883
:1008B00041F1070150A3D3E90023C4E90555257090
:1008C0006560E560FFF76CFC206110F0C1F900F194
:1008D00009083FB9357805F00F05A5F10105B5FA0E
:1008E00085F56D0994F82400236965F3000010F084
:1008F000010584F8240036D0444A09920020106093
:100900000225434A434F04930BAE01930592032102
:10091000CDE90200069443460090089607972A46C0
:100920000B9510F097F8314611F036F9A0B93A4915
:1009300005914AF2D8330093CDE90300CDE90100D7
:100940000797089606944346012203210B9510F061
:1009500065F82EE013F052B9236A002B3FF400AF84
:1009600013F008F9FCE6294A2C48049303F24713D4
:100970000694029591211360A7FB000301FB073148
:10098000244B0793224B05934FF6FF7309920227DE
:1009900003930BAE18A3D3E900230B970896FFF738
:1009A000FFFB4346CDE900503A462846032110F0AC
:1009B00051F8314611F0F0F80028CDD194F86A30A2
:1009C00043F0010384F86A300020CAE61220C8E62A
:1009D00013F0D0F80320C4E605F17000A867DEE646
:1009E000484611F023F80720BBE6504611F02AF8DC
:1009F000484611F01BF8F6E78D49FD1A0700000084
:100A00009847002000CA9A3B8C49FD1A8C47002069
:100A1000D53D0100ED0D0100D9380100002AE78421
:100A200070B590F824308AB0C3F342030D460446F3
:100A300001210DF1230016468DF823300EF050FEF3
:100A400071780246284613F087F91F491F4AA0FB18
:100A50000131981841F1070119A3D3E90023FFF7E9
:100A60009FFB23699842054622D21B1A002201925D
:100A7000174A02930221174B0991A21ACA40A3FBFD
:100A80000232D20800230A4409AE13490591CDE988
:100A900003330321D2B206960093184610F03AF8B9
:100AA000314611F079F838B9256100200AB070BDDF
:100AB000FBD9C21A0023DAE70C200AB070BD00BFD0
:100AC0008D49FD1A0700000000CA9A3B8C49FD1AA7
:100AD00098470020F712DA4BED0D010000000000EE
:100AE00038B5194C9DF810E094F834C01CF001059D
:100AF00023D163F3420C400194F8203021854FEA62
:100B0000CE0E0EF0180E00F0200040EA0E0023F08A
:100B1000380303430D4884F820309121A2FB0003E1
:100B200084F834C001FB023105A3D3E90023FFF7A9
:100B300037FBE0622063284638BD0C25284638BDC7
:100B40008D49FD1A07000000701D0020002AE7846F
:100B50002DE9F04F044600F1210190F8340094F89B
:100B60002030454DDFF814A1C0F3400060F3861338
:100B70008DB084F8203010F0BDF894F82020238D3B
:100B80003F48E46102F07902002784F82020912197
:100B9000A3FB0002C4E90577277001FB032134A3FE
:100BA000D3E90023FFF7FCFA651B226B354B676026
:100BB000ED08A3FB053502F109039842EDB298BF99
:100BC0003A4605EB450B8CBF19460146E2624FEAF7
:100BD0008B0B3122A260E76021614AF80B100646B8
:100BE00010F036F8B8460DF12C090AEB0B03099307
:100BF000CDF820900694CDF80C80238D00F10907E4
:100C00001F489121A3FB000201FB032123690493E8
:100C10001D4B07931D4B059302230B9314A3D3E99C
:100C20000023FFF7BDFA104619464FF47A720023ED
:100C3000FFF7B6FA0435EDB2CDE9016003213B467A
:100C40002A46CDF8008040460FF004FF494610F0D8
:100C5000A3FF40B994F8343043F0010384F83430F2
:100C60000DB0BDE8F08F0C200DB0BDE8F08F00BFD7
:100C70008D49FD1A07000000701D00201C4800204F
:100C8000002AE78425499224ED0D01005543010017
:100C90002DE9F04F06468DB08A4601200221994683
:100CA00015461BF0D1FD00220B90022101200EF011
:100CB000CBFB3B494FF4C47230460EF055FB471D49
:100CC000384B0093FFB201964B463A460121002073
:100CD0000FF07AFF10F0FD0F0ED0334A334934483D
:100CE00040F68F0324F0CDFC002383F31188BFF37B
:100CF0006F8F0323184602DF2E4CA5FB044526A365
:100D0000D3E9002320462946FFF74AFA08960696BB
:100D100033690493284B20F07F48A8FB0331E01A85
:100D2000264B07934FF00702254B059302FB081152
:100D30004FF6FE7365EB010103934FF47A720023C3
:100D4000FFF72EFA4FF0000BCDE90180CDF800A09F
:100D50004B463A46012158460FF060FE10F0FD0F59
:100D60000DD0114A1149124840F6A40324F089FC21
:100D70008BF31188BFF36F8F0323184602DF0B9BA1
:100D800013B90DB0BDE8F08F0122022110460DB05D
:100D9000BDE8F04F0EF058BB8D49FD1A070000006A
:100DA000A81D0020D548010030D60200F4D602006C
:100DB000E8CE020000CA9A3B8D49FD1A7548010031
:100DC000ED930100000000002DE9F0418468228EBF
:100DD0004FF6FF739A428CB045D00546204615F079
:100DE00071FE2B7D012B00F03B81022B00F02E8148
:100DF000002B00F00D8194F84061002E40F0298115
:100E00002B8A678F94F94320CDE90A6673B3002AD1
:100E1000C0F273810023A4F87A31AA7C238FFD18D5
:100E200002F003030135012BADB23BD0B4F87E31A3
:100E3000002B00F01E819D4280F072815B1B9BB2F3
:100E40000022062BA4F87E31628740F20F8194F9CC
:100E500043309342C0F26981002326E09DF82710B9
:100E6000204614F0B1F80CB0BDE8F081002AB8BFFC
:100E700084F86561238FAA7CFD1802F00303013515
:100E8000012BADB20ED0B4F87A31002BCED0AB42EC
:100E900040F255815B1BA4F87A31B4F87E31002B07
:100EA000C9D102E00023A4F87E3194F8482063F30E
:100EB000820284F8482029460DF12702204615F0C9
:100EC000C9FB7430CAD0B4F878312BB1AB4240F2D0
:100ED00005815B1BA4F87831B4F874312BB1AB42B7
:100EE00040F2F3805B1BA4F87431658F16B9AF42F2
:100EF00000F0E2800135ADB294F8C13013F0010783
:100F000031D1DDE90A130A46002B40F0E5800029C3
:100F100000F0D4801F461846228EE4690694CDE97D
:100F200003560532A64D0290CDE90017D2B2012139
:100F3000002005950FF0EEFD10F0FD0F93D010F09E
:100F400055FE84428FD09F4A9F49A0484FF4AE631C
:100F500024F097FB002383F31188BFF36F8F0323E3
:100F6000184602DF7FE794F943206FF30003002A5D
:100F700084F8C130C0F2988094F86400C0F3C001D6
:100F800000F0070019F0C6F894F8642094F8653072
:100F900002F003012831C2F34002C900D14003F03E
:100FA00003022832C3F34003D200DA40638D03F218
:100FB0003F13B1F5A07F2CBF5B1803F5A073B2F50A
:100FC000A07F2CBF9B1803F5A0730344804A81487F
:100FD0000721E3FB0021104677A3D3E90023FFF7A5
:100FE000DFF8DDE90A1320F07F4220692261904298
:100FF00035BF171A801A002000270A46002B8BD114
:1010000057EA010C88D1002858D019461F4683E7BB
:1010100094F87E3003F01803182B7FF4ECAEA18E09
:10102000B4F876218B1D9A42C4BF931F5B1AB4F8A3
:101030007211CCBF9BB21346994200F09C80A4F879
:101040007231A4F87431A4F87821D4E63D2684F8EE
:101050004061314620460CB0BDE8F04113F0B4BF0A
:101060000023A4F87831A4F87431C4E6012633468D
:101070001BE7628E052A97BF013240F2E2434FF42C
:10108000FA7392B203FB02F2B4F87C3142F21071AF
:1010900001FB0323013BB3FBF2F39BB2A4F87E31C7
:1010A000002B7FF4C8AE00E794F86500012100F042
:1010B000070019F031F867E735461DE7002D43D0EA
:1010C0000027114638463B4626E70023A4F8743132
:1010D000204615F061FB08E738461DE710F0F2FCEA
:1010E0000146A0B30023A4F87831238EC3801B23CC
:1010F0000371006810F0B8FCEEE694F865316BB34C
:10110000013B84F8653104F1C408404615F09AF8B3
:10111000B8B3404615F096F8B8B30023638779E674
:101120000821204613F050FF9DE6A7B9D4F8683196
:101130005A0813F0010336D1C4F868218CE63E2129
:10114000204613F041FF8EE6002EB9D18BE6012335
:10115000A4F87831C0E613460126A6E60AAA0BA930
:101160002846FFF775FADDE90A231343CBD023782D
:1011700084F86531C7E7B4F8781100297FF43BAEF5
:101180005FE7FF2013F0E2FEC3E70246D4E91A014D
:101190000EF022F90028C0D194F848301B0744BF54
:1011A000A38E638736E642F000421E46C4F86821EB
:1011B0003B467AE6AFF300808D49FD1A0700000038
:1011C0003148010030D6020040D70200E8CE0200CC
:1011D0008C49FD1A00CA9A3B2DE9F04F87B0CDE942
:1011E0000423BDF8442003780292BDF84820BDF8DE
:1011F00040A0BDF84C90878F019104460392002BCC
:1012000000F0F380013FBFB2A368D4F8FCB0A7EBB5
:10121000090292B2002B00920ADAE168626823F0B8
:10122000004391422CBF8B449344A360ABEB030B70
:1012300094F86400C0F3C00100F0070018F06AFFE2
:10124000B4F83280B8F1050F40F2C580009B18FB5E
:1012500003F81FFA88F840F2E246BAF1050F40F2AF
:10126000AE8094F8652094F8641002F003032833EC
:10127000C2F34002DB00D34001F003022832B3F591
:10128000A47FC1F340014FEAC20222FA01F238BF43
:101290004FF4A473B2F5A47F2CBF9B1803F5A4737D
:1012A00003F2D51303447C4A7C480721E3FB002169
:1012B0004FF09613A36296231046A38574A3D3E937
:1012C0000023FEF76DFF554620F07F4040F2E243D9
:1012D00003FB05F516FB08F6B3B22061B3FBF5F886
:1012E00015FB08F080B283421FFA88F659D26B4989
:1012F000C01A80FB010166A3D3E90023FEF750FF6B
:1013000020F07F408344E38EB4F8042113449944D1
:1013100094F84330A9EB07094E44DB09E6866BD10C
:101320005F4A6049604840F6671324F0AAF9002735
:1013300087F31188BFF36F8F0323184602DF2E4611
:10134000029BA386039BA4F87C3129462046A4F87F
:1013500032A015F0BBF9554BA18E2B44881DB3FB71
:10136000F5F39AB29042A4F8762104D2C1F57F41F8
:10137000FA310A4492B2019BA4F8722113B10023FE
:10138000A4F87E315B46324639462046FFF780FCA2
:1013900094F8703143F0010384F8703107B0BDE870
:1013A000F08F1B1A3D4883FB000139A3D3E90023CA
:1013B000FEF7F6FE20F07F40ABEB000BA3E74FF00B
:1013C00096130AF10105A3629623A385ADB20A2004
:1013D0004FF4FA737CE7009B08F1010818FB03F84F
:1013E0001FFA88F84FF4FA7637E7C38E1F44B0F837
:1013F00004311F44BFB207E7E26C0099636D274FC9
:1014000002FB1133636519F0B9F8064694F86401DC
:10141000C0F3420019F0B4F8064405FB06F6244B6D
:1014200006F5742606F23F26A3FB0636B60C636D5E
:10143000E66406FB08F06A080344963A934228BF24
:101440001346C4E91423049B40F2E24909FB03F369
:10145000E3650023A0FB0701C4F86C310CA3D3E9BA
:101460000023FEF79DFE134B059AABEB000BA3FB8D
:101470000230800A09FB00F0A0FB070104A3D3E9B6
:101480000023FEF78DFEAE1B20F07F4758E700BF1C
:101490008D49FD1A070000008C49FD1A00CA9A3BCD
:1014A00030D60200C0CF0200E8CE02007FC3C901DF
:1014B00083DE1B435917B7D12DE9F04F134615466C
:1014C0000A6853F8087BD2F80090B0F82EC00246A4
:1014D000044652F82EABD0F81E0094F81C800E463D
:1014E0009178628CA5F808C09970D4F82A306B60A6
:1014F00091B0D4F83A30C5F82230ADF83C2094F8D9
:101500003E2085F826200E9010AA12E9030005F16E
:1015100022030C90ADF83410184605210EF0E0F8C7
:1015200095F8273000F03F0060F3050385F8273079
:1015300094F83F30C3F3040285F82820A28EEA8293
:101540000128C8F3801808D903F01F031B3303F0E8
:101550001F030B2B01D892B2BAB90022C9F814208C
:1015600095F82C3062F3000385F82C300126E568ED
:1015700026715046214610F06BFA28682E712946D4
:1015800011B0BDE8F04F10F06FBA33680021596018
:10159000E38EB5F816B02B8340F2E24303FB0BFB5E
:1015A0003846638E0B9315F0A5F894F83F2097F812
:1015B0006411520962F3430187F8641118F0DEFFE9
:1015C0000A9097F86401C0F3420018F0D9FF0A9A14
:1015D00010440BFB00F0BA4A00F5742000F23F20E3
:1015E000A2FB00204FEA5B02800C963A28636A63F4
:1015F00094F8312040F2E24302FB03F36B64238F43
:10160000A7F87C315946384615F060F8AD4BAE4A24
:10161000C7F880215B44B3FBFBF39AB2A7F87621AD
:10162000298B881D824204DDC1F57F41FA310A44CD
:1016300092B2A7F872216B68C7F86831234613F895
:101640001C2FC2F340120A92DA0700F11281BDF892
:101650003430A4F823300C9884F81E804FF4807343
:10166000C4F81F00A383EB8AE3842B8B2385B7F890
:101670007C31638597F86431C3F3420384F82C30DE
:10168000384613F063F9A882E0802146504674681A
:1016900010F0DEF9AB8AE3801C2323710A9BD4F897
:1016A0000080002B40F0D9800A9B237721464046DA
:1016B00010F0DAF995F8494095F8488004F00704ED
:1016C0000121204618F028FD08F00708824608F09E
:1016D00003002830C8F3400804F00303C00020FAD8
:1016E00008F02833B0F5A47FC4F340044FEAC303E5
:1016F00038BF4FF4A470E340B3F5A47F2CBFC018EB
:1017000000F5A470DFF8C481714B00F2D51050448D
:101710000721E0FB083118464FF09613C5E9033363
:1017200000243123BB607C6063A3D3E90023FC6009
:10173000FEF736FD20F07F4038610B99F3682D6B82
:1017400040F2E24202FB013303F2B341A1EB0A0A89
:101750002246022101200DF077FE484612F0F8FCE7
:101760000246AAFB0801924653A3D3E90023FEF7E1
:1017700017FDCDF80490B3685649009120F07F48DA
:101780000AF102023A3BD2B24344012120460FF053
:101790001BFA0128ABEB05057AD099F82430DB075A
:1017A00053D4384613F0D2F8484BA5FB03A904469E
:1017B00041A3D3E9002350464946FEF7F1FC464BCE
:1017C000B668464A079220F07F45A5FB0331BAEB85
:1017D0000300434B05934FF4F573069708933B6959
:1017E0004FF0000BCDE903B34FF0070303FB0511E6
:1017F00069EB01014FF47A720023FEF7D1FC053446
:101800003A3EE4B2CDE90150CDF80080334622469D
:10181000012158460FF002F910F0FD0F0DD0314AAA
:101820003149324840F2EB1323F02BFF8BF3118840
:10183000BFF36F8F0323184602DF012202211046F7
:1018400011B0BDE8F04F0DF0FFBD00230122009361
:10185000184611460FF076F9A3E795F8273043F0C4
:10186000400385F82730281D17F0D6FE0123288570
:101870001BE71C4A1E491D48FD2323F002FF0023DD
:1018800083F31188BFF36F8F0323184602DFDEE670
:1018900010F0ACF9814580D0124A1649134840F245
:1018A000922323F0EEFE84F31188BFF36F8F03239E
:1018B000184602DF71E700BF8D49FD1A07000000DE
:1018C00083DE1B437FC3C901404B4C0000CA9A3BD7
:1018D0008C49FD1AAD9301008D49FD1A79930100E1
:1018E000ED930100F0DB0200F4D60200E8CE020026
:1018F00018D302004CDC02002DE9F04F8FB00DF13F
:1019000037010446DFF8D0A0DFF8D0800DF13600B3
:1019100010F01AF99DF836309DF837B00B930FF0A0
:1019200097F9DAF80060A6FB085629A3D3E900234B
:101930000027814631462846FEF732FCCDE907777D
:10194000069420F07F44DAF80400254B0593A0FBB1
:1019500008011FA3D3E90023FEF722FC214B20F04E
:101960007F40A4FB0331072202FB0411CDE9037081
:10197000E81A66EB01014FF47A720023FEF710FCBF
:101980000097CDE901404B460B985A4603210FF0D2
:1019900045F810F0FD0404D06FF08B000FB0BDE8E7
:1019A000F08F1148114A002321F0CCFD20B9DAF85C
:1019B0000C000FB0BDE8F08F9DF837209DF8360081
:1019C0000094234603210FF0BDF86FF07300E5E7A4
:1019D0008D49FD1A070000007C4C002000CA9A3B8C
:1019E000E99701008D49FD1A644C0020447B0B00EF
:1019F00038B50F4D04460FF02BF9A9680FF02AF9FE
:101A0000696803460B48B3FBF4F4A1FB00011C44D6
:101A100005A3D3E90023FEF7C3FB20F07F408442F7
:101A200094BF0020012038BD8D49FD1A0700000039
:101A30007C4C002000CA9A3BF0B5C468636883B050
:101A40000546002B4FD11AF0E7FA00201AF00AFBE6
:101A5000002108461AF0F8FA0022252108201AF081
:101A600035FB3D4B019301A81AF01CFB3B4940F2AA
:101A70005B601AF0D1FB237AC3F3420262F30613D0
:101A80002372204618F080FF27682E68384618F029
:101A9000DDFA06446A6806F1090101201AF0F6FC35
:101AA0001AF0E4FD204612F061FB811C3246C9B2F7
:101AB000384618F0D9FA054600BB204618F060FAFF
:101AC00010B9002003B0F0BD254A2649264840F24F
:101AD000294323F0D6FD85F31188BFF36F8F0323CD
:101AE000184602DFEDE793F82C309B07ABD01F4878
:101AF00021461AF04FFA1AF03BFBE2E7184A1C495C
:101B0000194840F2114323F0BCFD1A4B0721A5FBF5
:101B1000030301FB05310EA3D3E90023FEF740FBCD
:101B200015490246154823F0ACFD002585F31188C0
:101B3000BFF36F8F0323184602DF114821461AF0C6
:101B400029FA1AF015FB6FF08B00BBE7AFF30080AA
:101B500000CA9A3B00000000D6BE898E555555003C
:101B60003CDE0200B8D00200E8CE0200F1A1010084
:101B7000C0CF02008D49FD1AECDE0200C0DE02007B
:101B80008DA50100000000002DE9F041C468237913
:101B90006FF300038CB023710F4605461AF03CFA30
:101BA00000201AF05FFA002108461AF04DFA0022D0
:101BB000252108201AF08AFA012010F0CBF80646F9
:101BC000002800F0848006F11C001AF0A9FA5E4B90
:101BD0000B930BA81AF066FA5C4940F25B601AF0AE
:101BE0001BFB2079C0F34100253018F04FFA58480C
:101BF00021461AF0CFF923799B062ED596201AF0AC
:101C000039FC00231A46194618461AF06BFBD4F823
:101C100000802E68404618F019FA06446A6806F1FA
:101C2000090100201AF032FC1AF020FD1AF0CAFB5C
:101C3000204612F077FC011DC9B24046324618F02A
:101C400013FA0546002851D157B1204618F098F9EB
:101C500068BB00200CB0BDE8F0811AF0A3FBD6E70A
:101C60002369002BF1D03B4907913B49059140F294
:101C7000F31100930891CDE90377CDE9017706943C
:101C80003346032239460EF0C9FE10F0FD0FDCD0BA
:101C9000324A334933484FF4FA7323F0F2FC87F3A6
:101CA0001188BFF36F8F0323184602DFCDE72B4A5D
:101CB0002D492C4840F20B2323F0E3FC002383F34F
:101CC0001188BFF36F8F0323184602DFC1E7234A51
:101CD000264924484FF4C57323F0D3FC86F31188BA
:101CE000BFF36F8F0323184602DF6CE71B4A2049BE
:101CF0001C4840F2E51323F0C4FC1E4B0721A5FB52
:101D0000030301FB05310EA3D3E90023FEF748FAD4
:101D100019490246194823F0B4FC002585F31188BF
:101D2000BFF36F8F0323184602DF154821461AF0D0
:101D300031F91AF01DFA6FF08B008BE7AFF30080DA
:101D400000CA9A3B00000000D6BE898E555555004A
:101D500061B10100D5AF01006DB00100F8DE0200F5
:101D600058D40200E8CE0200B8D0020088DE02009B
:101D7000C0CF02008D49FD1A44DF0200C0DE020020
:101D800099AE0100000000002DE9F041C468A28A6C
:101D90004FF6FF739A4282B000F0DF80054619F0DB
:101DA000D7FB2B89628B208CA3831A4492B21044F8
:101DB00094F82730E28380B2411C21845E064FF004
:101DC0000001618304F1220100F1A18003F03F00D2
:101DD0000B4694F82810009004F1290017F0D4FB6A
:101DE0000646D4E90C31A28B02FB0333A26B1344E9
:101DF000E26B8B4294BFD21852188A4228BF0A461F
:101E0000E263616C226C94F849301144616494F887
:101E1000622094F82C10C3F3020363F3061112F04E
:101E200004024FF0000384F82C10A363236478D0DD
:101E30001AF0F2F800201AF015F9201D1AF032F904
:101E40002389A17A40F25B6043EA01411AF0E4F988
:101E5000304618F01BF9214659481AF09BF8A08922
:101E60001AF008FB94F8482094F84900C2F3C00324
:101E7000002102F0070200F007001AF033FA2046B2
:101E800019F010FC27682E68384618F0DFF8064471
:101E90006A6806F1090100201AF0F8FA80461AF083
:101EA000B9FB00201AF0D0FBE36B94F8490003F172
:101EB0002F02636C00F00700012103EB42051AF0CA
:101EC00043F94544054494F8490000F0070002280E
:101ED00025D004280CBF4FF4BC73282301211D44D6
:101EE0001AF034F928441AF087FBA18A05313246EA
:101EF000C9B2384618F0B8F80546002834D1204653
:101F000018F03EF8D0B9002002B0BDE8F0810A46D2
:101F100003F03F03218D17F083FB064661E718238A
:101F2000DCE7D4E913010DF057FA002880D194F8CA
:101F3000623043F0040384F8623079E7214A224991
:101F400022484FF4B07323F09CFB85F31188BFF354
:101F50006F8F0323184602DFD5E71D4821461AF08C
:101F600019F81AF005F9CEE7164A1A4917484FF43E
:101F7000AB7323F086FB184B0721A5FB030301FB82
:101F800005310DA3D3E90023FEF70AF913490246F0
:101F9000134823F076FB002585F31188BFF36F8F7C
:101FA0000323184602DF0F48214619F0F3FF1AF009
:101FB000DFF86FF08B00A7E700CA9A3B0000000033
:101FC0000DB90100D8DF0200B8D00200E8CE02004F
:101FD000F1A10100C0CF02008D49FD1A2CE00200E2
:101FE000C0DE0200D1A1010008B50E490E48FEF77F
:101FF0006FFABFF35B8F0D4B012253E8001F43E8DC
:1020000000200028F9D1BFF35B8F0948036803F073
:102010000703022B05D9074ABDE80840032124F035
:1020200088B808BD80841E0050BD020070220020C8
:10203000980C0020EEE4020008B50E490E48FEF7A9
:1020400047FABFF35B8F0D4B002253E8001F43E8B4
:1020500000200028F9D1BFF35B8F0948036803F023
:102060000703022B05D9074ABDE80840032124F0E5
:1020700060B808BD40420F0050BD02007022002031
:10208000980C002019E5020010B50D480D4C28F001
:102090004CFE48B923685B0710D00B4A012120464B
:1020A000BDE8104024F045B8FFF7C6FF236803F0F1
:1020B0000703022B02D9054A0321F0E710BD00BF38
:1020C00050BD0200980C002046E502005BE50200CE
:1020D000044BBFF35B8F1868BFF35B8F431E5842FE
:1020E0005841704770220020074B02460020197F9C
:1020F00011B11968914206D00130042803F124037C
:10210000F5D14FF0FF3070472C2300201FB500237E
:102110000B490393122201A8CDE9013306F056FDC5
:10212000041E05DA01A806F0E3FD204604B010BD48
:10213000044940F6F87201A806F016FE0446F1E7DD
:1021400080E502009026002002292DE9F74F07467E
:10215000904607D0214924F087FA6FF0150003B0AC
:10216000BDE8F08F1E481F4C4FF0FF324FF0FF3399
:1021700023F01FF8D8F804201B49384624F058FAF9
:102180004FF0000AA346DBF800309A4521D204F153
:10219000310625464FF0000914E0D8F80410A6F1E6
:1021A0001000FEF717F848B9019695F82030009313
:1021B000EB69A2680D49384624F03AFA09F10109A1
:1021C0003C353C36238B9945E7DB0AF1010ACC34D8
:1021D000D9E7034823F004F80020C0E78FE50200A8
:1021E0005826002090260020A9E50200C1E5020043
:1021F0002DE9F04F4FF0FF3285B004464FF0FF332A
:102200006248634D22F0D5FF62484FF0FF324FF035
:10221000FF3322F0CEFF4FF0FF335F484FF0FF3225
:1022200022F0C7FF5D49204624F002FA2B78002BEC
:1022300000F0A080013BDBB2022B00F29D80584AE7
:1022400052F823205749584F584E204624F0F0F9B1
:10225000574A5849204624F0EBF9AA6956492046C6
:1022600024F0E6F995F821205449002A0CBF3A469B
:102270003246204624F0DCF995F820205049514D93
:10228000002A0CBF3A463246204624F0D1F9FFF727
:102290001FFF4D4B4D4A4E49002818BF1A46204695
:1022A00024F0C6F94B49204624F0C2F94A4B4B4969
:1022B0001A88204624F0BCF94FF4FA7248492046A7
:1022C00024F0B6F92A681AB122F061FF2A68821A4E
:1022D0004449454EDFF814B1204624F0A9F9444999
:1022E000204624F0A5F90025A946A8462F46337FAD
:1022F000BBB13279012A07F1010706F105033DD18F
:10230000DFF8F0A008F10108039322F040FFB26962
:10231000039B801ACDE900A02A465946204624F0A6
:1023200087F90135042D06F12406E0D12B463A4603
:10233000314D32492046CDE9008924F079F9204613
:102340002F4924F075F92A682E49204624F070F9A7
:102350006A682D49204624F06BF90F4822F040FFAF
:102360000C4822F03DFF094822F03AFF002005B05A
:10237000BDE8F08F254A65E7254A63E7022ADFF8C2
:1023800094A008BF09F10109BEE700BF4426002060
:102390006C26002058260020182300200DE602009D
:1023A000F8C3020025E60200FAE50200F6E50200A5
:1023B0007426002030E6020042E6020059E60200E0
:1023C0006CE6020014230020FDE5020002E6020094
:1023D00081E6020092E602007C520020AEE6020096
:1023E000C3E60200D6E602002C23002009E7020023
:1023F000EFE602009A0F03009026002029E7020072
:102400004AE7020066E7020078E70200F0E5020012
:10241000E7E5020009E602002DE9F74F4FF0FF3330
:1024200004464FF0FF323948394DDFF8E880DFF8D5
:10243000E890DFF8E8A022F0BCFE3949204624F0FD
:10244000F7F838490422204624F0F2F800263746EF
:102450002B7F002B54D022F09AFEAB693246A0EBC2
:10246000030B4946204624F0E3F86A1D51462046F6
:1024700024F0DEF82B79012B07F101073ED02A4A20
:102480002A49022B08BF0A462949204624F0D0F8E1
:102490005A462849204624F0CBF82749274A95F880
:1024A0001EE095F820B0687FEB7FBEF1000F0CBFF7
:1024B00094468C46BBF1000F0CBF96468E46002B0F
:1024C0000CBF13460B46CDE900CE002818BF0A46C4
:1024D0001B49204624F0ACF80136042E05F12405F2
:1024E000B6D1184933463A46204624F0A1F80748A9
:1024F00022F076FE002003B0BDE8F08F124AC3E759
:1025000032464146204624F093F8E5E718230020A0
:102510002C2300205BE80200DCE70200EEE702006B
:10252000A7E70200C7E702008DE7020095E7020077
:10253000FAE7020008E80200A0E70200A3E70200B1
:1025400024E802006AE802009A0F03002DE9F74F21
:102550004FF0FF33354D04464FF0FF32344822F040
:1025600028FE3449204624F063F82A683249204680
:1025700024F05EF86A683149204624F059F80021B9
:102580002B6801930E462B4688460D4689460A461F
:102590000F460198884225D0B3F818B09E464FF0F8
:1025A000000C0EE09EF820000438052805D8DFE86E
:1025B00000F0030D0F12151701370CF1010C0EF18D
:1025C0003C0EE345EEDC0131CC33E2E70132F4E7C7
:1025D00009F10109F1E708F10108EEE70136ECE73E
:1025E0000135EAE72046164924F022F84A462046FB
:1025F000144924F01DF842462046134924F018F8E7
:102600003A462046114924F013F832462046104934
:1026100024F00EF80F492A46204624F009F8044811
:1026200022F0DEFD002003B0BDE8F08F90260020F0
:102630005826002086E8020066E7020078E70200DC
:10264000A5E80200BEE80200D6E80200EBE80200BE
:1026500000E9020013E902002DE9F0414FF0FF33D9
:1026600004464FF0FF32304822F0A3FD2F4B0025E7
:102670001F461E7F8EB10135042D03F12403F8D1CE
:102680002B4803685B0703D02A4A012122F08CFD06
:102690000D21204626F00DF840E02046242425F0A8
:1026A000CBFF6C4307EB0408012388F81C3038513A
:1026B00088F8046022F06BFDC8F81800601D1C4CFF
:1026C0001D493844FDF790FD236803F00703022BF2
:1026D00024D91A4A0321204622F066FD236803F01C
:1026E0000703022B1AD92B46154A0321204622F054
:1026F0004CFD236803F00703022B0FD93346114A20
:102700000321204622F041FD236803F00703022B3A
:1027100004D90D4A0321204622F046FDBDE8F041D0
:10272000014822F05DBD00BF182300202C230020AB
:102730003C0C0020A5E90200C9E9020028E90200DA
:1027400045E9020059E9020080E902000B4639B16F
:1027500005480268520705D0044A012122F015BD40
:10276000FFF77ABF704700BF3C0C0020D1E90200A0
:102770002DE9F8434FF0FF32044600AF1E484FF0FA
:10278000FF33884622F015FD2046FFF7ADFC041EFE
:102790002BDB1A481A4E036803F007032425022B8B
:1027A00004FB05F515D9E9468AB06A46154B536115
:1027B0006B1D3344C2E906344FF400739384124B0B
:1027C000C2F820804FF4335142F8103F22F0EEFC63
:1027D000CD464FF0240808FB04F4305909F0ACFE54
:1027E00042460021701929F0C1F8034822F0F8FC94
:1027F000BD46BDE8F88300BF182300203C0C002034
:102800002C230020F4E90200050000012DE9F0412D
:1028100082B000AF0646F8714FF0FF321D481E4CE3
:102820004FF0FF3322F0C5FC0025237F33B323791B
:10283000012B23D1E27F0AB320681849FA1D22F048
:10284000BAFC1748036803F00703022B16D9154A90
:10285000154BE8468AB0002E18BF13466A46134946
:10286000D36140F201331384114BC2E9051542F8DC
:10287000103F4FF4135122F099FCC5460135042D49
:1028800004F12404D1D1034822F0AAFC0837BD4644
:10289000BDE8F081182300202C230020C4C50200CD
:1028A0003C0C0020FDE5020002E6020021EA0200E5
:1028B000040000012DE9F04F83B004464E4800AFFC
:1028C0004FF0FF3390464FF0FF328A4622F071FC02
:1028D0002046FFF709FC051E484CC0F283802368A0
:1028E000474E4FF0240B0BFB05FB03F007030BF1E6
:1028F0000509022BB14446D9424A0321204622F061
:1029000053FC236803F00703022B3CD92B463E4AB5
:102910000321204622F039FC236803F00703022B31
:1029200031D9B344C7F804D08AB09BF804306A4662
:102930003649DFF8DCB0C2F81C90C2E9051340F25A
:10294000013313844FF4135142F810BF204622F094
:102950002DFC2268D7F804D002F00702022A12D90F
:102960008AB06A462B49C2F81C8040F20133C2E9A2
:10297000051A13844FF4135142F810BF204622F079
:1029800015FCD7F804D0242303FB05660F2241462B
:10299000484686F804A029F035F80023337522F064
:1029A000F6FB2368B06103F00703022B13D96C46D2
:1029B0008AB06A46184BC2F81C80C2E9053540F25D
:1029C00001331384124B42F8103F0C484FF413515B
:1029D00022F0ECFBA546084822F002FC0C37BD466D
:1029E000BDE8F08F23685B07F5D00C4A0121204633
:1029F00022F0DAFBEFE700BF182300203C0C002098
:102A00002C23002053EA020073EA02007CEA020051
:102A1000040000018EEA0200A0EA0200C7EA0200F8
:102A200010B54FF0FF3204464FF0FF33094822F053
:102A3000C0FB2046FFF758FB041E06DB22F0A7FB75
:102A4000054B242202FB04339861BDE81040014885
:102A500022F0C6BB182300202C2300202DE9FF41C3
:102A6000DFF84C80044616461F464FF0FF324FF009
:102A7000FF3340460D4622F09CFB4046DFF8348091
:102A800022F0AEFB2046FFF7CBFF4046FDF7B4FB3C
:102A9000BDF82830009380B2CDE901803B46324634
:102AA0002946204626F031FC04B0BDE8F08100BF85
:102AB000442600206D2600202DE9F043DFF86490C5
:102AC000194D87B00446174698464FF0FF324846E6
:102AD0004FF0FF330E4622F06CFB2B788DF814304C
:102AE000AB698DF8153095F821308DF816304846D1
:102AF00095F820308DF8173022F072FB2046FFF752
:102B00008FFF0423029305AB0193BDF83830009387
:102B10003A4643463146204626F0F7FB07B0BDE86B
:102B2000F08300BF442600206C2600202DE9F043EE
:102B3000164D89B006469046154899464FF0FF322B
:102B40004FF0FF330F4622F034FB2C686B6805947E
:102B5000069324B1013CCC2303FB0455AC680C481C
:102B6000079422F03DFB3046FFF75AFF0C230293F7
:102B700005AB0193BDF84030009342464B463946C1
:102B8000304626F0C2FB09B0BDE8F0839026002055
:102B900058260020B0B54B1E1C485C425C410368BF
:102BA00003F00703022B00AF15D9194A194B6D46E4
:102BB00088B0012908BF13466A461749C2E90513C0
:102BC0004FF400739383154B42F8103F4FF4E651D6
:102BD00022F0ECFAAD464FF0FF324FF0FF331048D1
:102BE00022F0E7FA0F4B0022197F21B11979012950
:102BF00008BF83F820400132042A03F12403F3D1F3
:102C0000074822F0EDFABD46B0BD00BF3C0C0020E5
:102C1000F2EA0200FAEA020003EB020003000001FC
:102C2000182300202C230020B0B54B1E1B485C420B
:102C30005C41036803F00703022B00AF15D9184A63
:102C4000184B6D4688B0012908BF13466A461649DD
:102C5000C2E905134FF400739383144B42F8103FFD
:102C60004FF4E65122F0A2FAAD464FF0FF324FF09A
:102C7000FF330F4822F09DFA0E4B0022197F19B145
:102C80001979012908BFDC770132042A03F12403F2
:102C9000F4D1074822F0A4FABD46B0BD3C0C002098
:102CA000F2EA0200FAEA02001AEB02000300000155
:102CB000182300202C230020B0B54B1E1B485C427B
:102CC0005C41036803F00703022B00AF15D9184AD3
:102CD000184B6D4688B0012908BF13466A4616494D
:102CE000C2E905134FF400739383144B42F8103F6D
:102CF0004FF4E65122F05AFAAD464FF0FF324FF052
:102D0000FF330F4822F055FA0E4B0022197F19B1FC
:102D10001979012908BF9C770132042A03F12403A1
:102D2000F4D1074822F05CFABD46B0BD3C0C00204F
:102D3000F2EA0200FAEA020037EB020003000001A7
:102D4000182300202C2300204FF0FF334FF0FF32D8
:102D500010B50446094822F02CFA2046FFF7C4F9C2
:102D60000028A3BF064B242202FB00330024A8BF87
:102D70001C79024822F034FA204610BD18230020A6
:102D80002C2300202DE9FF4104460D4616461F4620
:102D9000FFF7DAFF20B90E4A01212046FFF78AFD2E
:102DA000DFF830802046FFF73BFE4046FDF724FA6F
:102DB000BDF82830009380B2CDE901803B46324611
:102DC0002946204626F0A1FA04B0BDE8F08100BFF4
:102DD0004FEB0200D10B0020B0B54B1E1B485C42EC
:102DE0005C41036803F00703022B00AF15D9184AB2
:102DF000184B6D4688B0012908BF13466A4616492C
:102E0000C2E905134FF400739383144B42F8103F4B
:102E10004FF4E65122F0CAF9AD464FF0FF324FF0C1
:102E2000FF330F4822F0C5F90E4B0022197F19B16C
:102E30001979012908BF5C770132042A03F12403C0
:102E4000F4D1074822F0CCF9BD46B0BD3C0C0020BF
:102E5000F2EA0200FAEA020059EB02000300000164
:102E6000182300202C230020F7B5194D2B6803F000
:102E70000703022B044605D90368164A0321284696
:102E800022F083F90023144E1448E36004F1C701D3
:102E9000E3680133E3603246631E13F8017F7A4032
:102EA000994200FB02F2F8D1B2F5803FC4F8C82085
:102EB000EED22B6803F00703022B06D923680448DF
:102EC00000920321064A23F047F903B0F0BD00BF8A
:102ED0003C0C00206EEB0200C59D1C81930100019B
:102EE00081EB020030B52448244C85B04FF0FF320E
:102EF0004FF0FF3322F05DF9214B1F481A788DF80F
:102F00000C209A698DF80D2093F8212093F8203039
:102F10008DF80E208DF80F3022F062F919484FF02D
:102F2000FF324FF0FF3322F044F90025237FC3B175
:102F30002379012B15D1A37F9BB12068124904236B
:102F400003AA22F038F91148036803F00703022BA3
:102F500007D99DF80C300E4A009303212B4623F02D
:102F6000FBF80135042D04F12404DFD1054822F0DB
:102F700037F905B030BD00BF442600202C230020C7
:102F80006C2600201823002000C602003C0C002004
:102F90009EEB020030B54FF0FF3287B04FF0FF33A9
:102FA000204822F006F9204A1368516803930491DF
:102FB00023B1013BCC2101FB0322936819480593FF
:102FC00022F00EF919481A4C4FF0FF324FF0FF3340
:102FD00022F0EFF80025237FCBB12379012B16D106
:102FE00094F820309BB10C23206812490DEB0302AA
:102FF00022F0E1F81048036803F00703022B06D91A
:10300000039B0E4A009303212B4623F0A5F80135BC
:10301000042D04F12404DED1044822F0E1F807B0C5
:1030200030BD00BF58260020902600201823002025
:103030002C23002088C502003C0C0020D6EB0200A7
:103040002DE9F74F314E3768132F824688460AD94B
:103050002F4803685B0755D02E4A012103B0BDE815
:10306000F04F22F0A1B8CC2202FB07F404F10809CA
:10307000B1440021484628F079FC336834440133D8
:10308000A36022F084F87368E0602361A4F81880DC
:10309000A4464FF0000E4FF03C0BF0450CF13C0CF9
:1030A0001FDC4846FFF7E0FE336819480133336000
:1030B000CC2303FB0767D7F8D0307360036803F0B5
:1030C0000703022B06D9BB68134ACDF80080032101
:1030D00023F042F8FFF75EFF03B0BDE8F04FFFF7C3
:1030E00015B80BFB0EA50FCDACF120040FC40FCD0E
:1030F0000FC40FCD0FC495E807000EF1010E84E850
:103100000700CAE703B0BDE8F08F00BF902600209B
:103110003C0C00200EEC02001FEC02002DE9F043F5
:103120002A48036803F00703022BBDB003D9284ADD
:10313000032122F039F8DFF89C90274E00244FF449
:10314000A02200236946484620F064F858BB4FF09F
:10315000FF324FF0FF33304622F02BF86D463C2310
:103160003CAA671C03FB04240FCDB43C0FC40FCD55
:103170000FC40FCD0FC495E8070084E80700304660
:1031800022F02EF8032F10D14FF0FF324FF0FF3313
:10319000304622F00EF839460FA8FFF751FF3046AF
:1031A00022F01EF800E03CB9002740F6CD40002197
:1031B00028F07DF93C46C2E74FF0FF324FF0FF3375
:1031C000304621F0F6FF2146E6E700BF3C0C002028
:1031D0004BEC02001426002058260020F0B591B0D8
:1031E00000AF044615460E4621F0D1FF0F2278604D
:1031F000314607F109003C7228F004FC00241F222C
:10320000294607F119003C7628F0FCFB1B4B1C49B2
:1032100087F838403A1D12F8010B01344340382C2E
:1032200001FB03F3F7D1FB63002316480022391D8D
:103230001FF090FF00281448036808DA5B0703D0EA
:10324000124A012121F0B0FF4437BD46F0BD03F022
:103250000703022BF8D96C468AB06A460C4BD5613D
:10326000C2E905360B4B13620B4B42F8103F4FF48B
:10327000235121F09BFFA546E6E700BFC59D1C81B9
:1032800093010001142600203C0C002068EC020091
:103290007FEC0200000201030400000270B5214E21
:1032A000214D012333702B6803F00703022B0446E2
:1032B00004D91E4A0321284621F076FF1C4821F03C
:1032C0008FFF307A1B4B1C491C4A002818BF194637
:1032D0000420FFF783FF4FF0FF3215484FF0FF3314
:1032E00021F067FF02231248337021F079FFFFF7C6
:1032F000F9FD1349204623F09BF91249204623F09B
:1033000097F91149204623F093F92B6803F007033E
:10331000022B06D9BDE870400C4A0348032121F076
:1033200043BF70BD6C2600203C0C00209AEC0200CC
:103330004426002074260020C9E90200B3EC0200F4
:10334000CDEC0200F3EC020021ED020047ED02009B
:1033500038B50C4D4FF0FF3304464FF0FF320A48AA
:1033600021F027FF2B7823B92046FFF797FF002095
:1033700038BD054821F034FF2A780449204623F05F
:1033800073F9F4E76C2600204426002078ED020053
:10339000F8B54FF0FF3200AF4FF0FF33044621483D
:1033A000214D21F006FF214B1E4840F201121A84E4
:1033B00003221A7021F014FF1D4A1E490820FFF74E
:1033C0000DFF2B685A0712D06E4688B06A461A4B1A
:1033D00053611A4B93614FF400739383184B42F877
:1033E000103F4FF4E251284621F0E0FEB54621F0AF
:1033F000CAFEFFF777FD0020FFF708FA11492046C3
:1034000023F016F91049204623F012F92B685B07C8
:1034100004D00E4A0448012121F0C6FE0020BD461A
:10342000F8BD00BF442600203C0C00206C26002084
:10343000B5ED0200C9ED0200D0ED0200E4ED02009E
:10344000030000011AEE020042EE020073EE0200D9
:1034500010B5044621F095FE0120FFF7D7F920466C
:10346000064923F0E5F82046054923F0E1F8054A2E
:1034700005490220FFF7B2FE002010BD9FEE0200BA
:10348000B5EE0200E1EE0200F2EE020010B50446D5
:1034900021F079FE0020FFF7B9F92046064923F014
:1034A000C7F82046054923F0C3F8054A054903201B
:1034B000FFF794FE002010BDF8EE0200B5EE02000A
:1034C0000EEF0200F2EE0200F0B589B004464FF0B4
:1034D000FF324FF0FF332548254D00AF21F069FE44
:1034E00021F055FE234AB0FBF2F3072103FB120340
:1034F000214A284621F0E0FA2146E81DFCF774FE37
:1035000021461E48FCF770FE21F041FE0022C5F85E
:103510001B001648C5F8172021F062FE2B46184AFA
:103520002021384621F0C8FA05203A462146FFF707
:1035300055FEFFF7D7FC1348036803F00703022B7F
:1035400010D96E468AB06A460F4BD561C2E9053480
:103550000E4B13620E4B42F8103F4FF4235121F0F3
:1035600025FEB5462437BD46F0BD00BF44260020E9
:103570006D26002040420F0020EF0200D10B0020FA
:1035800025EF02003C0C002032EF02000002010394
:10359000040000022DE9F0410F2B00AF06469046D3
:1035A0001C465FD8FFF7D0FB20B9304A01213046D6
:1035B000FFF780F92E4D10220021284628F0D6F979
:1035C00041462246284628F0A9F9DFF8A8800023C2
:1035D00030462B55FFF724FA27484FF0FF324FF0C3
:1035E000FF3321F0E6FD98F80060234821F0F8FD54
:1035F000022E224E1DD12846FFF766FF336803F0E6
:103600000703022B11D9E84688B06A461C4BC2E971
:1036100005354FF4007393831A4B42F8103F4FF473
:10362000E651304621F0C2FDC5462046BD46BDE804
:10363000F0814FF0FF334FF0FF320F4821F0B9FD1A
:10364000294608F10800FCF7CFFD0B4821F0C8FD22
:10365000336803F00703022BE7D9E84688B06A46CF
:10366000094BD4E76FF00C04DFE700BF4FEB02001B
:10367000D10B00206C260020442600203C0C0020AA
:1036800050EF02000300000192EF0200022970B522
:1036900005460E46144605D0164922F0E5FF6FF0A8
:1036A000150070BD51681448FCF79EFD4FF0FF32C5
:1036B00012484FF0FF3321F07CFD114B6168184632
:1036C000FCF792FD00F8086C0C4821F089FD606859
:1036D000FFF7FAFE62680B49284622F0A9FF0A4963
:1036E000284622F0A5FF2846084922F0A1FF002025
:1036F000D7E700BFCCEF0200D10B0020442600200A
:1037000074260020F0EF020011F0020037F00200F2
:10371000F8B5314C4FF0FF3300AF05464FF0FF32A4
:103720002E480E4621F045FD2378022B04D02B486D
:1037300021F056FD00202DE0611C3046FCF74AFDCB
:1037400050BB2070A061254821F04AFD244A29463B
:103750000620FFF743FD21F014FD0120FFF756F886
:10376000FFF7C0FB1F48036803F00703022B10D9C3
:103770006C4688B06A461C4BC2E905354FF40073AD
:1037800093831A4B42F8103F4FF4E65121F00EFD9F
:10379000A5460120BD46F8BDA3690133022BA361F4
:1037A00014D903230D482370012384F8213021F01C
:1037B00017FD09200E4A2946FFF710FD21F0E3FC12
:1037C0000020FFF723F8FFF78DFBB3E70023034842
:1037D000237021F005FDF6E76C260020442600202A
:1037E0005EF002003C0C00206DF0020003000001BE
:1037F00083F00200B0B5062B82B0054600AF2ED193
:10380000106893883860BB80394600231548BB7127
:10381000FFF77EFF04462846FFF702F912480368C7
:1038200003F00703022B03D806200837BD46B0BDBE
:103830000E4A0F4B002C18BF13466C468AB06A46DE
:103840000C49D3610C4B13620C4BC2E9051742F8CB
:10385000103F4FF4235121F0A9FCA546E4E76FF097
:103860000C00E2E7D10B00203C0C002091F002009C
:1038700099F00200A0F0020000020103040000021F
:10388000032910B5044605D00C4922F0EDFE6FF077
:10389000150010BDD2E90101FFF73AFF084B094AB4
:1038A0000949002818BF1A46204622F0C1FE2046CA
:1038B000064922F0BDFE0020EBE700BFBFF002008A
:1038C00091F0020099F00200EBF0020037F00200E4
:1038D00070B5284C4FF0FF338AB005464FF0FF32E9
:1038E000254821F066FC2378002B3DD1234E336818
:1038F00003F00703022B08D94FF4FA730093204A10
:103900002B460321304622F027FC01231A4823705E
:1039100021F066FC1B4A2B46202102A821F0CCF89E
:10392000207A194B194902AA002818BF1946042009
:10393000FFF754FC4FF0FF320F484FF0FF3321F0F8
:1039400038FC02230C48237021F04AFCFFF7CAFA26
:10395000336803F00703022B04D90D4A07480321FB
:1039600021F022FC0AB070BD03480AB0BDE87040E7
:1039700021F036BC6C260020442600203C0C0020A0
:1039800006F1020047F1020074260020C9E9020096
:103990005CF10200F0B5294B294F188085B0044630
:1039A00021F0F5FB274B18603B6803F00703022B5F
:1039B00005D9254A23460321384621F0E6FB4FF47A
:1039C000FA73ADF80A30ADF8084021F0E0FB4FF093
:1039D000FF3203904FF0FF331C481D4D21F0E9FBEF
:1039E00000262B7FBBB12B79012B14D16B7F93B1B8
:1039F00008230DEB03021749286821F0DCFB3B6824
:103A000003F00703022B06D9134A0D4800943346EE
:103A1000032122F0A1FB0136042E05F12405E0D19B
:103A20000A4821F0DDFBB4F5FA7F05D9204605B040
:103A3000BDE8F040FFF74CBF05B0F0BD7C52002060
:103A40003C0C0020142300209FF1020018230020CA
:103A50002C2300203CC60200B3F10200F8B54A4C0A
:103A60001E46236803F00703022B0546174629D993
:103A7000464A0321204621F097FB236803F0070301
:103A8000022B1FD93346424A0321204621F07DFBF9
:103A9000236803F00703022B14D9BDF818303D4A00
:103AA0000321204621F071FB236803F00703022B5A
:103AB00008D92846FFF748F9374A0346032120462C
:103AC00021F063FB022E0BD023685B0705D0334A3D
:103AD0002D483346012121F058FB6FF00C00F8BD52
:103AE0002846FFF731F9236803F0070300283FD188
:103AF000022B04D92A4A2448032121F055FB294AE4
:103B000002212846FEF7D6FE2846FFF71DF9236856
:103B100003F00703022B064605D90346224A1A483A
:103B2000032121F032FB2168022E01F007011AD196
:103B3000022904D91D4A0321134821F035FB2368CB
:103B40003E8803F00703022B05D9194A0E48334675
:103B5000032121F01AFB2846FEF762FF3046FFF7EB
:103B600019FF0220BBE70029E9D0124A0121E3E74F
:103B7000022BE4D92846FFF7E7F80F4A0346032152
:103B8000014821F002FBDAE73C0C0020E1F10200E1
:103B9000FCF1020015F2020020F202003CF20200E9
:103BA00058F2020085F2020090F20200B9F202001F
:103BB00039F30200E6F202000FF30200022970B5A9
:103BC000044605D0154922F04FFD6FF0150070BD79
:103BD000506827F0D3FE86B2B6F5FA6F054602D9D3
:103BE0000F492046EFE73046FFF7D4FE0D49AAB251
:103BF000204622F01DFD0C49204622F019FDB6F5A5
:103C0000FA7F01D80020E2E72046084922F010FDA3
:103C10000749204622F00CFDF4E700BF54F30200F0
:103C200079F302009CF30200BBF30200DDF3020013
:103C300037F0020070B5204C40F6F87200210126E2
:103C4000204627F093FEA66021F0A1FA00250A2362
:103C50001A49E060E06104F1210084F82030256118
:103C60002683FCF7C1FA164904F13100FCF7BCFACF
:103C7000144A154804F11B012B4611F8015F01336A
:103C80006A40382B00FB02F2F7D110486265FFF75B
:103C9000EBF801230E482360D4F8D030636003684A
:103CA00003F00703022B03D90A4A032121F07CFA0F
:103CB000BDE87040FEF72ABA90260020C9ED020048
:103CC00011F40200C59D1C8193010001982600207B
:103CD0003C0C002027F4020070B50E4690B03F491E
:103CE0000546144622F0A4FC012E75D93C496068B3
:103CF000FCF770FA00286FD13A483B4E4FF0FF3284
:103D00004FF0FF3321F055FA4FF0FF3337484FF0B3
:103D1000FF3221F04EFA336813F0060F04D0344A14
:103D20000221304621F040FA40F6F8720021314875
:103D3000314C27F01BFE31482422002127F016FECB
:103D40003C22002101A827F011FE0022002301A936
:103D500020461FF05FFA0028F2D0244821F040FAF4
:103D6000204821F03DFA264805F01CF8041E12DA1E
:103D7000A11C10D033685A0705D0224A23461A489E
:103D8000012121F002FA20492246284622F06CFC4B
:103D9000204610B070BDFFF74DFF041E336804DAF3
:103DA0005B07F0D0194A2346E9E703F00703022B2B
:103DB00004D9174A0C48032121F0F6F9FFF7EAF875
:103DC000FFF790F81349284622F032FC12492846A2
:103DD00022F02EFC0024DBE71049F8E73DF4020056
:103DE000F6E50200582600203C0C00204426002066
:103DF00074F4020090260020142600206C26002077
:103E000080E502009EF4020069F50200C3F402009E
:103E1000EAF4020020F502003FF5020089F50200F5
:103E2000F0B58FB082498348834C03AA05F0BAFCF1
:103E3000002103A807F0A6FA0028236809DA5D0725
:103E400004D07E4A0121204621F0AEF94FF0FF3523
:103E50001BE003F00703022B04D9794A0321204613
:103E600021F0A2F9774805A904F0E4FF80B1764873
:103E700005F024F8051E0BDA23685C0705D0734AA9
:103E80002B466D48012121F080F928460FB0F0BD86
:103E90006F4827F06DF86F4827F06AF86E4827F0F2
:103EA00067F80A236D496E483C2227F046F8242221
:103EB00000216C4827F05AFD902200216A4827F023
:103EC00055FD002369490B93012209A8CDE9093367
:103ED00004F07CFE00280DDA09A804F009FFFFF7C2
:103EE000A9FE0546002D12DA23685807CDD0604A96
:103EF0002B46C6E75F4940F6F87209A804F016FFA2
:103F0000054609A804F0F4FE05EAE575EAE7FEF7C0
:103F1000BBF8236803F00703022B06D9554B564A1A
:103F20001B684548032121F030F9002006F056FFB8
:103F3000034640B12268510788D0504A3E480121CB
:103F400021F023F982E7236803F00703022B39D914
:103F50004B4A3948032121F027F9236803F007036E
:103F6000022B2FD9474A3448032121F01DF9236839
:103F700003F00703022B25D94FF4FA73424A2E4867
:103F8000032121F002F9236803F00703022B19D95A
:103F90003E4A2948032121F007F9236803F007036B
:103FA000022B0FD93A4A2448032121F0FDF8236857
:103FB00003F00703022B05D9364A1F4804230321C7
:103FC00021F0E3F8344E0FCE09AD0FC533682B60F6
:103FD000002300933149032209A807F0DFFD0346BF
:103FE00028B1226852073FF431AF2D4AA6E7236873
:103FF00003F00703022B04D92A4A0F48032121F0BA
:10400000D3F81C4F284E294D4FF42030002127F0C3
:104010004EFA236803F00703022BF5D93A68338878
:104020000548009203212A4622F096F8ECE700BFEB
:10403000B2F50200B9F502003C0C0020CBF50200FD
:10404000E8F5020012F60200D006002017F6020082
:10405000582600204426002018230020BC230020DE
:10406000142600206C2600202C23002080E502006E
:1040700036F60200902600205AF6020080F6020072
:104080009FF60200C2F60200EEF602002AF70200D6
:1040900055F702008BF7020000C3020020C50200A2
:1040A000B8F70200D4F702007C52002000F80200AA
:1040B0002DE9F04F91B08407009302F004030293BE
:1040C000C2F3C20303F10103DDF8688003920546E1
:1040D0000E46059340F0BA81041D30B1072909D876
:1040E0006FF01B0011B0BDE8F08F01F007063444FB
:1040F000C6F10806009B4FF00009591E4FF0040A54
:104100004FF0FF330193CDF810904F46CB46534606
:104110000DB1009A22600598002800F3E8809848C5
:10412000009A824203D397488242C0F0E080039A0B
:10413000A4EB050E92074FEA9E0000F103810F2FBA
:1041400000F2B180002D00F0058107F140020DEB77
:10415000020C019A0CF8200C0CF8102C0498013079
:104160000490E7E07A285DD84B280ED8472859D824
:1041700029282DD8252852D054D820287AD0233861
:10418000D0F1000B4BEB000B74E04C382E2849D8D3
:10419000DFE800F0704848484848484848484848E0
:1041A0004B484848484848484859484B4B59595942
:1041B000704B6D487048184B184848827F4B4848F0
:1041C0004B487F0000204FF0000B4FF0040A38E00E
:1041D0002A38C0B2012202FA00F010EA0E0F49D1CB
:1041E00010F0625C2FD110EA020B43D06046013C14
:1041F0005444B4FBFAF40AFB04F4002D61D0A3EBA1
:10420000050CA444B4453FF66BAF002868D1042BDD
:1042100047D158F8043B2360043404232AE0019A70
:10422000013A01924FF0000B24E011F8010C6C28C8
:1042300034D111F8023C00206C2B8346C5D14FF0DD
:10424000080A5346D3E708F1070828F0070807349F
:10425000F8E802AB24F0070435B106982044B042D8
:104260003FF63EAFC4E900AB08344FF0000B4FF00F
:10427000080A534611F8010F002878D0BBF1000F4F
:104280007FF470AF2528F5D1019B013301934FF0E6
:10429000010B4FF0040AECE7584694E700208346F0
:1042A000A5E7082B02D06FF015001BE708F10708FF
:1042B00028F00708F8E80223C4E90023083408239B
:1042C000D8E768B9042B02D108F10408A4E7082B49
:1042D000E9D108F1070828F0070808F10808EDE718
:1042E000059A013A059258F8042B009210E7039AB8
:1042F000900720D5A4EB050E4FEA9E004FF0010C6D
:10430000BEF5007FCFD20F2FCDD8F5B107F1400217
:104310000DEB020EC0B2019A0EF8200C0EF8102C14
:10432000BCF1000F3FF41AAF60F07F000EF8200CD4
:1043300009F101090137C5F10802043406924FF66C
:10434000DA7E97E74FF0000CDAE7BCF1000F01D0FE
:104350000136EFE7029802360028EBD10098CDE94C
:104360000631FBF749FFDDE906310644E2E7631B4E
:10437000B3F5806F97D23DB9A6F10804E018B1E615
:104380005CBB020004310300029A28609B082B707A
:104390009DF81030C2B1EB7085F80290B9F1000FB2
:1043A00005D008A80022C5F1010C97420ED1C5F135
:1043B00001030DF120084FF0000A01930DF1300BBD
:1043C000574512D1601B8DE66B70E5E710F8013B95
:1043D000190608D50CEB040EB64503F07F033FF633
:1043E0007FAE04F8013B0132DFE7B9F1000F03D0E3
:1043F00098F90020002A17DB029BD3B11AF80B2092
:1044000004F8012B0022019B18191044B0423FF61A
:1044100067AE98F8000004F8010B0099039220465B
:1044200027F07CFA039A14440AF1010A08F1010802
:10443000C6E798F8002055F822300093029B45F813
:1044400022300098FBF7D8FE421CDCE76FF00D002D
:1044500048E600BF2DE9F04F97B000AF90F802A0FA
:10446000D7F880B03B62CBF3C0030446FA62BB616D
:10447000894641B9457800780AEB800020444D45D3
:1044800017D8A0EB0409E378FB61BAF1000F02D062
:104490001BF0010F16D1FB6953BBFB6A1BB13A6AD3
:1044A0004946204698474D4628465C37BD46BDE8FC
:1044B000F08F461C3046FBF79FFE0130304409F177
:1044C0000109DCE7237862687A62FA6A9900796107
:1044D00004EB8301002A40F004814D460E4601EBB7
:1044E0000A094FF000084E4550D101EB0A0610E0D2
:1044F0001BF0020FD1D023789A007A6162687A6249
:10450000FA6A04EB8301002A7BD14D4601EB0A06CF
:1045100090461BF0050F0CBF02230123FB62FB69D1
:1045200006EB430A0BF00203BB625645BCD016F8FB
:10453000021B16F8013C54F823909B4B994502D37B
:104540009A4B99453AD3BB69002B44D0786A21F045
:1045500062F800283FD09648036813F0060F13D086
:10456000E9468AB06A46934B53617B6AC2E90631D9
:104570004FF400731384904B42F8103F00234FF424
:10458000125100F009FECD46023DCEE716F8013B80
:10459000F96254F82300FBF72FFED7F88430F96A4C
:1045A00001304BB1D7F8883098453EBFD7F88430FA
:1045B00023F8180008F10108054494E7BB6923B10A
:1045C000786A21F028F80028C5D11BF0010F05D129
:1045D000FB6AED1AA9E7BB6A002BA6D04846FBF799
:1045E0000BFED7F8843053B1D7F8883098453FBFD9
:1045F000D7F88420431C22F8183008F1010805443C
:1046000093E7BAF1000F72D01BF0040672D0D046C7
:10461000002607F1480052463B61B96227F07EF957
:10462000B96A3B6901EB0A02BA62FA69F969520098
:10463000FA60BA6A02EB41023A610BF00202BA6018
:104640003A69B96A8A4257D162787A621BF0020FDE
:1046500032440CBF4FEA580100211BF0010FD2B2C7
:1046600040F09F801BF0040F14BF40460020BB6148
:104670006270A070E1703A6A7969FB6A20469847D7
:10468000051EFFF611AFBB6923707B6A6370FB697F
:10469000E37041463A6AFB6A84F802A007F14800D9
:1046A0009847B0F10008C0F2BB807B693A6AA9EB79
:1046B0000A01C91AFB68C91AD7E90A0398470028F2
:1046C000C0F2B080A84408EB00054FF0000B07F1E2
:1046D000380AB34572D300213A6AFB6A0846984704
:1046E000E2E656464FF0000807F1380093E75646D9
:1046F000D04697E7B04695E7BA6A12F8021BBA624D
:1047000012F8015C284A54F82500904202D3274A47
:1047100090421ED3BA6932B1786A7B6020F07BFF89
:104720007B6800288CD1BA6802BB08F1280207F127
:10473000300C08F10100944407F1580252FA80F05D
:1047400008F102080CF8101C5FFA88F800F8105CF9
:1047500076E7BA693AB1786A7B6020F05CFF7B68E3
:1047600000287FF46DAF1BF0010F09D006F128027D
:1047700007F13000711C161806F8205CCEB25FE716
:104780001BF0040F3FF45CAF08F1280207F1300082
:1047900008F1010102EB000808F8105C5FFA81F8EB
:1047A0004EE7002063E700BF5CBB0200043103005A
:1047B0007C0C002064FA0200040000011BF80A309F
:1047C00087F8373054F82390D7F884302BB3D7F8D4
:1047D00088309B4521D2D7F8843033F81B803A6A61
:1047E000FB6A012107F13700984700281ADB0544CE
:1047F000B8F1000F06D14846FBF7FEFC00F10108B6
:104800001FFA88F83A6AFB6A4146484698470028EA
:1048100008DB05440BF1010B5BE74FF00008DEE716
:10482000454641E605463FE6014B1860704700BF2C
:104830000808002080B505460E46174698461FF02A
:10484000EDFC034627F080F9DFF81890044649F89C
:104850000030424630463946A84754F8090003F074
:104860004BFC00BF080000002DE9F047058B044613
:104870002807904611D4022905F0070540F0CC80A6
:10488000204621F0E0F978B10138218B042811D8B5
:10489000DFE800F0C2106D85950001290CBF45F0DE
:1048A000100545F02005258388F31188BFF36F8F2D
:1048B000BDE8F08701F0070AAA4500F0A5800027AF
:1048C000B9463E46A368002B00F0BC8041F00801C9
:1048D000218388F31188BFF36F8FA168002900F04E
:1048E000BA800D68002900F0B680D1F80480334604
:1048F00052462046C047002D76D02B6829461D46DB
:10490000F0E701F007035A1F012A1BD8002221F00B
:104910000701062B276889B2C4E9002209D13B466A
:1049200003E0628B013262831B68002BF9D141F0F6
:1049300002012183204621F086F900287AD041F037
:10494000200176E0042B0AD121F0070189B22183EE
:10495000204621F078F910B141F020012183218B0C
:1049600001F0070AAA454FD00027B946AAE72369F4
:1049700021F0070141F00601062DD3F800902183B4
:104980002DD1B9F1000F3FD041F00801218388F308
:104990001188BFF36F8F3A492046C84729E021F0BC
:1049A0000701236941F0040189B2042DD3F8049072
:1049B0002183E6D000273E464FF0040A82E721F02B
:1049C0000701236941F0050189B2052DD3F808904C
:1049D0002183D6D000273E464FF0050A72E7002714
:1049E0003E464FF0060A6DE72B4687E7B9F1000F08
:1049F000D1D1EFF31188202383F31288BFF36F8F97
:104A0000238B23F008032383258BEA062ED525F07C
:104A10001003238305F007056669218B002EBFF67E
:104A200070AF00232768C4E9003321F0070141F08B
:104A300001012183218B01F0070AAA454FF00009EB
:104A40007FF440AF002F9CD041F00801218388F310
:104A50001188BFF36F8F002FC8D03D6839463346A9
:104A60005246204621F01BF92F46F4E7AB067FF5AE
:104A70001BAF25F02003238305F0070500E700BFE7
:104A8000CB5C02002DE9F047DFF85880044607466A
:104A90004FF0010914B93846BDE8F08794FAA4F53F
:104AA000B5FA85F509FA05F32E0108EB05156FEA4D
:104AB000030A24EA03042B7B002BEBD058F80630C2
:104AC0001B694BB94644042273682846196807EAF3
:104AD0000A0721F0ABFADDE7284698470028D9D12C
:104AE000F0E700BF74C1020030B51049104889B02A
:104AF000002226F0ABFD0F4D0F4900220023CDE927
:104B0000062300240E23CDE90334CDE901440B4BE9
:104B100000944FF4407228461FF046F80849284692
:104B20001EF074FF204609B030BD00BF454B0000A9
:104B300088140020C80F0020005C0020914E000067
:104B400018FB020001481EF0C3BC00BF940D0020FA
:104B50002DE9F84F804624480F4621F03FFA0646DB
:104B6000002839D000252846BDE8F88FA4EB0B03B8
:104B700062681B1101331371237B83B12368DB68E7
:104B80000BB120469847636883F8069023681B6939
:104B9000D3B9636804221968204621F047FA013628
:104BA00010345445E2D3B8F1000FDCD0002DD9D039
:104BB0002846FFF767FF0546002FF7D000214FF486
:104BC000A47026F074FCF1E7204698470028E0D056
:104BD00009FA06F31D43E2E7044CDFF814A005468A
:104BE000A3464FF00109DCE79836002074C10200AB
:104BF00084C1020008B5034608462BB1044A13607D
:104C000000F06CFD002008BD6FF01500FBE700BF51
:104C10000C08002010B5044C237813B903481EF08B
:104C200057FC0123237010BDA0520020940D0020DA
:104C300010B504460B4821F0D1F95CB1BFF35B8F8E
:104C4000094B53E8001F013943E80012002AF8D14C
:104C5000BFF35B8F054826F005FD0548BDE8104011
:104C60001EF036BC903600209436002088140020B8
:104C7000940D00200020064BBFF35B8F014653E8E4
:104C8000000F43E80012002AF9D1BFF35B8F704791
:104C90009036002070B5FFF7EDFF084C084E054632
:104CA000B44200D370BD63685B792BB123685B6845
:104CB00013B12946204698471034F1E774C1020029
:104CC00084C1020010B5044C0449204620F0E9FDDF
:104CD000034B1C6010BD00BFF80B00208CC6020007
:104CE00088360020094A0A4808B500231370094A8B
:104CF0001360094A4FF400411360FFF77BFFFFF791
:104D0000E1FFBDE8084000F071B900BFA1520020EA
:104D1000D95F020090360020943600200146002220
:104D20000148002320F0DEBDF80B0020014820F0F0
:104D300077BE00BFF80B0020024B0146186820F038
:104D4000C3BE00BF88360020014820F0F8BE00BF77
:104D5000F80B00202DE9F041364B1878002866D07A
:104D6000FFF7E4FF044600285DD1334B334C1B684A
:104D7000002B19DD26F023FC4FF47A72A0FB02030E
:104D800002FB0131C30BD4E9002043EA41439B1AE3
:104D90004FEAD13140F2E93261EB0001934271F107
:104DA000000101D3FFF776FFD4E9003213F57A73DF
:104DB00042F10002C4E90032BDE8F041FFF7C4BF90
:104DC0006B685B793BB121784B0717D52B6821467F
:104DD0001B682846984710354545F1D32046FFF714
:104DE000ABFFBFF35B8F164B53E8001F013943E85D
:104DF0000012002AF8D1BFF35B8FB6E72046268861
:104E0000C1F3C20700F0A8FAC6F382160246002ECC
:104E1000DCD00028DADB01233946284600F096F979
:104E2000B042D8D3D2E7074DDFF81C80D4E7BDE805
:104E3000F08100BFA0520020903600208014002096
:104E40009436002074C1020084C1020070B50D4D7B
:104E5000297861B90120FFF77BFE0B4C0B4EB44261
:104E600006D3FFF777FF0028FBD101232B7070BD1D
:104E700063685B791BB1236820469B6898471034B0
:104E8000EDE700BFA152002074C1020084C10200FE
:104E900000212DE9F0470846FFF75AFE044658B3B3
:104EA00040F267684FF0000926F04EFE1B4B1C4A8B
:104EB0001B58136033B11B4B1B68092B02DD1A48CA
:104EC0001EF006FB194FDFF860A0002544B1204614
:104ED000FFF7D8FD044618B94FF0FF384FF0FF39FF
:104EE000FFF738FF064628B9B5B942464B4650464B
:104EF0001EF028FB3546E9E74FF0FF384FF0FF3949
:104F0000D2E72B689B691BB10022114628469847BF
:104F10001035BD42F5D3E8E7054DFAE7080000007B
:104F20008C36002094360020940D002084C10200AD
:104F300074C1020013B5184821F050F8174B1B78C4
:104F400073B1EFF31184202383F31288BFF36F8FC3
:104F5000FFF700FF84F31188BFF36F8F02B010BD1D
:104F60000F4B1B68002BF9D050B900220023CDE96C
:104F700000230C484FF4004200231FF08FFCEDE7A4
:104F80000928EBD1074826F06DFB074802B0BDE8C1
:104F900010401EF09DBA00BF94360020A1520020A0
:104FA0008C36002088140020940D002010B5064B8C
:104FB0001B68044698472146A060044820F011FD74
:104FC000BDE81040FFF7B6BF0C080020F80B00202A
:104FD000044A054B9B1AB1EBD30F34BF52F8310092
:104FE0000020704754C0020074C102000B480C4BF3
:104FF00030B51B1A0B4CDB0800210430994200D15C
:1050000030BD10F83120256802F0070225F00705B1
:105010002A4344F8042B0131F0E700BF54C00200DA
:1050200074C102003C0C0020F8B50B4F0B4DED1B7A
:105030000646ED080024AC4203D14FF0FF34204671
:10504000F8BD57F8340020B13146FBF7C3F800280B
:10505000F5D00134EFE700BF54C0020074C1020074
:1050600000282DE9F047884615461F461DDADFF86F
:105070009890264E4FF0000AA6EB090636095446D2
:10508000B24509F1100902D12046BDE8F08759F870
:105090000C0C3B4600792A464146FFF7E1FF84426B
:1050A00038BF04460AF1010AEAE7194B194AD21A35
:1050B000B5EBD20F26D203EBC5031C79BC4228BF47
:1050C0003C46154EC0B200EB400056F82530072292
:1050D000824023EA020304F00702824013430021C6
:1050E000032223FA02F000F00700814202F10302DA
:1050F00038BF01461E2AF4D123F007030B4346F8BC
:105100002530C1E70024DCE774C1020084C102003D
:1051100054C0020074C102003C0C0020F8B5094DD7
:10512000094BED1A06460F46ED080024AC4200D3A9
:10513000F8BD002122B23B463046013420F06EFF1C
:10514000A4B2F3E774C1020054C0020070B1416818
:10515000097973B1002A17DBCBB20C4951F8220050
:1051600003EB4303D84000F0070070474FF0FF31D6
:10517000EFE707490748401AB2EBD00F3ABF01EBFF
:10518000C201087918467047042070473C0C002083
:1051900054C0020074C102002DE9F04F8FB004AF7B
:1051A000C1F34A28B8600D4691467B600C0DB8F1FA
:1051B000000F67D0002607F114034FF0040B4FF0E7
:1051C0000A0AC7F80C80C7E907667E620193CDF82A
:1051D00008B0CDF800A007F11C03F9683246484634
:1051E000FFF738F9B0F5006F034620D32A4803686B
:1051F00013F0060F17D06C468AB0D9F8041004AB30
:10520000264DC3E9055140F2FF71D9611A464FF4AA
:1052100000711984224B42F8103F4FF4125133466B
:10522000FFF7BAFFA5462C37BD46BDE8F08FC0F3A7
:105230000A0804F11700184420F0070080083B60BA
:10524000FFF76CFD68F35325044690B13B68154A9F
:10525000C7E9083600F1100107F11403F961CDE93F
:1052600000A3CDF808B0F96807F11C034846FFF722
:10527000F1F868F353257B68B9682A46204620F088
:1052800008FFD0E704F1170020F007008008FFF7BF
:1052900045FD0446EDE700BF9C0C00202DFB0200FD
:1052A00004000001676002002DE9F04F87B0DDE9DE
:1052B0001279DDE9105A0446039193469846DFB10E
:1052C000CDF800903B46524610210020CDF81490B6
:1052D000FEF7EEFEB0F5006F06460ED31C480368DD
:1052E00013F0060F30D01B4A40F2FF73022107B0C3
:1052F000BDE8F04F20F026BF3E4605F117003044D0
:1053000020F0070004F007048008FFF707FD0BF00A
:10531000070BE40044EA8B1444EA462444EA0554AB
:10532000054640B13FB1CDF800903B46524631466C
:105330001030FEF7BDFE039943462246284607B0CB
:10534000BDE8F04F20F0A5BE07B0BDE8F08F00BF6C
:105350009C0C00206CFB0200406820B1034BC01A7B
:1053600040F38F0070474FF0FF3070473C0C002037
:105370000EB403B503AB014653F8042B0448019364
:1053800003F074F902B05DF804EB03B0704700BF9E
:10539000A7610200CA0605D48B064CBF0249034927
:1053A000FFF7E6BF704700BF76FF0200A4FB0200D4
:1053B0002DE9F04F89B09B46149B06939DF84CA0B5
:1053C000159B0593169B179E049304460D46904625
:1053D000BAF1000F00F09D8006F48073079320F06F
:1053E0001BFE06F00209024600283ED091492046E5
:1053F000FFF7BEFF0746B9F1000F08D016F0440FC3
:1054000035D18D492A462046FFF7B2FF074406F002
:10541000010353B1894B8A4953F82A20894B20460E
:10542000002A08BF1A46FFF7A3FF06F48073002B7B
:1054300049D006F00803002B63D1B8F1000F66D005
:10544000814942462046FFF793FF0546069B3D44AF
:10545000002B6DD1049B002B73D1F30700F1E48086
:1054600031462046FFF796FFD8E00746C3E7774B63
:1054700018680028CAD0764B4FF47A791B68B5FBC0
:10548000F3F54FF46163B5FBF0F100FB115509FB37
:1054900005F54FF03C0CB1FBF3F203FB1211B5FB29
:1054A000F0FEB1FBFCF300FB1E550CFB131109FBD6
:1054B00005F50091B5FBF0F56649CDE901E520461B
:1054C000FFF756FFA2E706F00803EBB1624B634912
:1054D00053F82A202046FFF74BFF0546B8F1000F8E
:1054E00005D0594942462046FFF742FF0544BBF12B
:1054F000000FABD05A495A462046FFF739FF054402
:10550000A4E74FF0000BE1E706F00805E6E74546A3
:105510009CE7BBF1010F069B06D1002B64D1049BD5
:10552000002B7BD000250CE0002BF8D04D485CE030
:105530004D48069B4D49224620F03CF8049B002B29
:1055400068D0DFF82C81DFF82C91049F3146102FB2
:10555000204628BF1027FFF71DFF4FF0000B5D45C9
:1055600045DC059B49461A782046FFF701FF4FF0BE
:10557000010B1BF0070F03D141462046FFF7F8FE51
:105580005F453BD9059B494613F80B202046FFF7A2
:10559000EFFE0BF1010BBBF1100FEAD136492046AB
:1055A0004FF0000BFFF7E4FE5A46059B9A5CA2F110
:1055B00020015F2928BF2E2230492046FFF7D8FE60
:1055C0000BF1010BBBF1100F1DD01BF0070F03D126
:1055D00041462046FFF7CCFE5F455A46E5D8414696
:1055E0002046FFF7C5FEEBE71F485546A1E74146B9
:1055F0002046FFF7BDFE0BF1010BB0E72049204626
:10560000FFF7B6FEC5E7059B3B440593049BDB1BF8
:1056100004939AD1BAF1000F7FF41FAF204609B06E
:10562000BDE8F04F20F0B2BD064A05492046FFF71D
:105630009FFE15E7ACFB0200B0FB0200A0C6020013
:1056400097EC0200A7FB0200D5FB0200A036002069
:105650009C360020B9FB0200B4C60200D9FB020050
:10566000DFFB0200DD610200A76102006D86000021
:10567000ECFB0200E4FB0200EEFB0200B4070300B7
:10568000EAFB020073B542F20F738B4228BF0B4650
:1056900005680F4A0446052168461FF00DFA636845
:1056A0000C495B6806460B22284620F061FD6368C2
:1056B0003246694628465B6820F05AFD6368064911
:1056C0005B681B22284620F053FD02B070BD00BF6E
:1056D000802A03000CFC0200F0FB0200074A0021B4
:1056E0000123904206D8064A01B901231360054BF5
:1056F0001860704740085B000121F2E740420F004C
:105700009C360020A0360020014B0360002070472B
:10571000C8C6020070B5104B1C680D46B4B10F4BE3
:10572000196800238B4202DB6FF0010070BD224636
:1057300012F8106B864202D001331446F2E7E0689B
:1057400025F0F3FA28B12C600020EFE76FF00C0091
:10575000ECE76FF01200E9E710080020C8C602006D
:1057600010B5044624F091F903490246204620F082
:105770005FFF002010BD00BF4FFC020073B5134651
:1057800000220192044601AA58680A2101F0A6FCF1
:10579000019D95B920EAE0744FF40046294640F295
:1057A000E7304FF47A720023C4FB0601FAF7F8FCE5
:1057B00025F07DFE284602B070BD2A4602492046EB
:1057C00020F052FF019DF5E77BFC020008B5034A7B
:1057D000034920F02DFF002008BD00BF6BFD020033
:1057E00072FD0200F7B517460023054601AA0A21FB
:1057F000B868019301F072FC1749C6B2284620F040
:1058000025FF019C44B122461449284620F02CFF74
:10581000019C204603B0F0BD042E09D91049324640
:10582000284620F021FF284620F05AFF0124F0E707
:105830007868FFF7F9FB021E07DA7A6809492846FB
:1058400020F012FF6FF01504E3E7334612B2214651
:10585000204620F0E3FBDCE79DFD020003FE020092
:105860002AFE020041FE020007B5002300906946AF
:1058700004488DF804301EF02DFE9DF8040003B09E
:105880005DF804FBE362020010B5044619F0D0F89D
:1058900007490246204620F0CBFE2046054920F06D
:1058A000C7FE054821461EF02FFE002010BD00BF98
:1058B00099FE0200B8FE0200BD58000070B58EB01F
:1058C00004460D46D0F89C6025F031FD034626F0D5
:1058D0003BF9214A21491058214A002B18BF1A468A
:1058E0000092204A2346844218BF0A4628461E4991
:1058F00020F09EFED4E90A23CDE90023284694F93E
:105900000E30227B194920F093FE06A92022204662
:105910001EF08CF8636E16490246284620F088FE79
:1059200005A9204625F011FD024628B11149284657
:1059300020F07EFE0EB070BD059B6422F11A4A4332
:105940000091B2FBF6F20C49CDE9016228463246DD
:1059500020F06EFEEEE700BF08000000ECFB020046
:10596000C2FE02000DF30200C5FE0200D1FE0200DD
:10597000FDFE020014FF020041FF0200F0B5002509
:1059800091B00446294608AF1C2209A825F0EEFF75
:10599000134E1A222021384625F0E8FF21461148EF
:1059A0001EF0B2FD07AA4FF40061304625F0C1FC9D
:1059B000079A0097C2F5006164234B43DB0A059305
:1059C0004FF40063CDE90313CDE9013220460649C7
:1059D0002B46A6F1400220F02BFE284611B0F0BD68
:1059E00080720020ED5900008DFF020070B5044662
:1059F000D0F89C6088B00D4607A925F0A6FC0246A9
:105A000028B10F49284620F013FE08B070BD20468B
:105A100025F08DFC079B0096F11ACDE90131094B69
:105A200064224A43002818BF0346B2FBF6F2064937
:105A3000CDE903622846224620F0FAFDE5E700BFE3
:105A400014FF0200C2FE0200D6FF020038B5134662
:105A500005461022586800211FF0D0F80446FFF7D1
:105A600003FF38B90E492246284620F0FDFD6FF0AD
:105A7000150038BD26F068F80A4B1B589C4204D12B
:105A80000949284620F0F0FDF1E720461EF096F97E
:105A900028460649224620F0CBFD0020E9E700BF5A
:105AA0003A00030008000000550003007D000300D9
:105AB00038B5134605461022586800211FF09EF89D
:105AC0000446FFF7D1FE38B90E492246284620F099
:105AD000CBFD6FF0150038BD26F036F80A4B1B5889
